:100000000C9463000C946C040C9445040C949304BD
:100010000C9493040C9493040C948B000C948B001C
:100020000C948B000C948B000C948B000C948B0024
:100030000C948B000C948B000C948B000C948B0014
:100040000C94FB030C948B000C94B9010C94930159
:100050000C948B000C948B000C948B000C948B00F4
:100060000C9423050C948B00000000002400270052
:100070002A0000000008000201000003040700003D
:1000800000000000000000000000250028002B00F8
:1000900000000000230026002900040404040404D6
:1000A0000404020202020202030303030303010227
:1000B00004081020408001020408102001020408F6
:1000C0001020E20DD80D11241FBECFEFD8E0DEBF07
:1000D000CDBF26E0A8EBB2E001C01D92A935B20762
:1000E000E1F712E0A0E0B1E0E8E4F3E202C005903D
:1000F0000D92A83BB107D9F710E0C2E6D0E004C0EA
:100100002197FE010E945C0FC136D107C9F70E94FA
:10011000850A0C9497110C940000FC01538D448DBA
:10012000252F30E0842F90E0821B930B541710F0A2
:10013000CF96089501970895FC01918D828D9817AF
:1001400061F0828DDF01A80FB11D5D968C91928DBB
:100150009F5F9F73928F90E008958FEF9FEF0895B8
:10016000FC01918D828D981731F0828DE80FF11D81
:10017000858D90E008958FEF9FEF0895FC01918D9C
:10018000228D892F90E0805C9F4F821B91098F7395
:10019000992708958DE895E00E94BE0021E0892B03
:1001A00009F420E0822F0895FC01848DDF01A80F5F
:1001B000B11DA35ABF4F2C91848D90E001968F738F
:1001C0009927848FA689B7892C93A089B1898C91AE
:1001D00080648C93938D848D981306C00288F38974
:1001E000E02D80818F7D80830895EF92FF920F93A1
:1001F0001F93CF93DF93EC0181E0888F9B8D8C8DD3
:10020000981305C0E889F989808185FD24C0F62E00
:100210000B8D10E00F5F1F4F0F731127E02E8C8D99
:10022000E8120CC00FB607FCFACFE889F989808183
:1002300085FFF5CFCE010E94D400F1CF8B8DFE015A
:10024000E80FF11DE35AFF4FF0820B8FEA89FB891B
:100250008081806207C0EE89FF896083E889F9891F
:1002600080818064808381E090E0DF91CF911F9155
:100270000F91FF90EF900895CF93DF93EC01888D5D
:100280008823C9F0EA89FB89808185FD05C0A8899A
:10029000B9898C9186FD0FC00FB607FCF5CF808120
:1002A00085FFF2CFA889B9898C9185FFEDCFCE016A
:1002B0000E94D400E7CFDF91CF91089580E090E0D5
:1002C000892B29F00E94CA0081110C940000089526
:1002D000833081F028F4813099F08230A1F00895C4
:1002E0008730A9F08830B9F08430D1F48091800053
:1002F0008F7D03C0809180008F7780938000089568
:1003000084B58F7702C084B58F7D84BD08958091B8
:10031000B0008F7703C08091B0008F7D8093B000D4
:1003200008950E9459111F920F920FB60F92112437
:100330002F933F934F935F936F937F938F939F93ED
:10034000AF93BF93EF93FF938DE895E00E94D400A5
:10035000FF91EF91BF91AF919F918F917F916F919D
:100360005F914F913F912F910F900FBE0F901F9073
:1003700018951F920F920FB60F9211242F938F93FF
:100380009F93EF93FF93E0919D05F0919E058081EF
:10039000E091A305F091A40582FD12C090818091A7
:1003A000A6058F5F8F732091A705821751F0E0910A
:1003B000A605F0E0E357FA4F958F8093A60501C09C
:1003C0008081FF91EF919F918F912F910F900FBEA0
:1003D0000F901F901895CF93DF93282F30E0F901ED
:1003E000EE58FF4F8491F901E255FF4FD491F90186
:1003F000E656FF4FC491CC2391F081110E94680111
:10040000EC2FF0E0EE0FFF1FE057FF4FA591B491E6
:10041000EC91ED2381E090E021F480E002C080E0E7
:1004200090E0DF91CF9108951F93CF93DF93282F12
:1004300030E0F901EE58FF4F8491F901E255FF4F8A
:10044000D491F901E656FF4FC491CC23C9F0162F81
:1004500081110E946801EC2FF0E0EE0FFF1FEA57B8
:10046000FF4FA591B4918FB7F894111105C09C91DD
:10047000ED2FE095E92302C0EC91ED2BEC938FBFBB
:10048000DF91CF911F910895CF93DF9390E0FC010E
:10049000E255FF4F2491FC01E656FF4F84918823DB
:1004A00061F190E0880F991FFC01E859FF4FC59159
:1004B000D491FC01EA57FF4FA591B491611109C095
:1004C0009FB7F8948881209582238883EC912E230E
:1004D0000BC0623061F49FB7F8943881822F809509
:1004E00083238883EC912E2B2C939FBF06C08FB75C
:1004F000F894E8812E2B28838FBFDF91CF91089548
:100500003FB7F8948091890590918A05A0918B0559
:10051000B0918C0526B5A89B05C02F3F19F0019618
:10052000A11DB11D3FBFBA2FA92F982F8827820F79
:10053000911DA11DB11DBC01CD0142E0660F771FC9
:10054000881F991F4A95D1F7089508952091BA02FE
:100550003091BB022817390771F49091B80280914D
:10056000B902981741F0E091B802F0E0EC5BFA4F65
:10057000808190E008958FEF9FEF089508951F9375
:10058000CF93DF93DC015C962D913C915D97211513
:10059000310539F481E090E013969C938E93129785
:1005A0003DC05196ED91FC91529750969C91509779
:1005B000892F80951FB75E964C915E9741FB7727F8
:1005C00070F941FD6095F8944081772311F0492B33
:1005D00001C048234083E9012197F1F748E05081A9
:1005E00060FF02C0592B01C058235083E9012197B5
:1005F000F1F76695415099F7772321F0908189238F
:10060000808303C08081982B90831FBF5C968D915F
:100610009C915D970197F1F721E030E0C901DF91EE
:10062000CF911F9108952091BA023091BB022817F3
:10063000390771F48091B9022091B80290E0805C92
:100640009F4F821B910960E470E00E94120F089591
:1006500080E090E008952091BA023091BB02281703
:100660003907B9F49091B8028091B902981789F0CE
:10067000E091B802F0E0EC5BFA4F80812091B80283
:1006800030E02F5F3F4F2F7333272093B80290E065
:1006900008958FEF9FEF089585ED8093BC008091C2
:1006A000BC0084FDFCCF10921E0508954091F80413
:1006B000262F30E0240F311D21323105DCF420914A
:1006C0001E052430C9F4FC0180E090E0861758F440
:1006D0003091F8042191DC01AA52BB4FA30FB11D48
:1006E0002C930196F3CF8091F804680F6093F8047F
:1006F00080E0089581E0089582E0089508958FEFE5
:100700009FEF08958FEF9FEF08958091D50490E0BB
:100710009195819591090895CF93DF9300D0CDB73E
:10072000DEB7CB01642F49835A830E945603498167
:10073000842F5A81952F0F900F90DF91CF910895BC
:10074000CF93DF931F92CDB7DEB7698361E0CE010F
:1007500001960E94560381E090E00F90DF91CF91C7
:100760000895089580E090E008958F929F92AF924F
:10077000BF92CF92DF92EF92FF926B017C010E94B9
:1007800080024B015C01C114D104E104F104F1F0D9
:100790000E948002DC01CB0188199909AA09BB09D2
:1007A000883E9340A105B10570F321E0C21AD1083B
:1007B000E108F10888EE880E83E0981EA11CB11CA8
:1007C000C114D104E104F10419F7DDCFFF90EF90DB
:1007D000DF90CF90BF90AF909F908F9008952FB7EC
:1007E000F8946091850570918605809187059091B8
:1007F00088052FBF08951F920F920FB60F921124F4
:100800002F933F938F939F93AF93BF9380918505D1
:1008100090918605A0918705B09188053091840557
:1008200023E0230F2D3720F40196A11DB11D05C033
:1008300026E8230F0296A11DB11D20938405809305
:10084000850590938605A0938705B09388058091D0
:10085000890590918A05A0918B05B0918C05019630
:10086000A11DB11D8093890590938A05A0938B05E6
:10087000B0938C05BF91AF919F918F913F912F9134
:100880000F900FBE0F901F9018951F920F920FB6EA
:100890000F9211242F933F934F935F936F937F9306
:1008A0008F939F93AF93BF93EF93FF93E0910201D8
:1008B000F09103010995FF91EF91BF91AF919F9145
:1008C0008F917F916F915F914F913F912F910F90F9
:1008D0000FBE0F901F9018951F920F920FB60F9298
:1008E00011242F933F934F935F936F937F938F9335
:1008F0009F93AF93BF93EF93FF93E0910001F0912B
:1009000001010995FF91EF91BF91AF919F918F9157
:100910007F916F915F914F913F912F910F900FBEFB
:100920000F901F9018951F920F920FB60F921124DF
:100930002F933F934F935F936F937F938F939F93E7
:10094000AF93BF93EF93FF93E091BA02F091BB0294
:10095000309709F451C0968DA685B785858591FF9E
:1009600004C09C91892329F447C09C91892309F0F4
:1009700043C0A389B4899C918589809589238C93F0
:10098000868997890197F1F7608D718DA685B78566
:10099000558538E020E0CB010197F1F7822F90E0F8
:1009A00095958795282F4C91452309F02068315063
:1009B00091F7868D81FD20958091B90290E0019696
:1009C0008F7399273091B802381749F0A091B90276
:1009D000B0E0AC5BBA4F2C938093B90203C0868D14
:1009E0008160868F828D938D0197F1F7A389B489F9
:1009F0009C918589892B8C93FF91EF91BF91AF9149
:100A00009F918F917F916F915F914F913F912F9126
:100A10000F900FBE0F901F901895E091BA02F091C1
:100A2000BB02E817F90769F4A389B4899C91858909
:100A3000809589238C931092BB021092BA0281E0B8
:100A4000089580E008951F920F920FB60F9211241F
:100A50002F933F934F935F936F937F938F939F93C6
:100A6000AF93BF93EF93FF938091B900887F803657
:100A700009F49CC068F5883209F45BC090F48031B9
:100A800009F454C038F4882309F4F6C0883009F416
:100A90004DC0F6C0883109F44CC0803209F45DC005
:100AA000EFC0803409F468C048F4803309F455C0BD
:100AB000883309F0E5C080931D05D8C0803509F45E
:100AC0004FC0883509F45DC0883409F0D9C0D6C05C
:100AD000883909F4C7C0A8F4883709F467C038F426
:100AE000883609F463C0803709F460C0C9C088380B
:100AF00009F4B8C0803909F45FC0803809F0C0C07B
:100B00005BC0803B09F486C038F4803A09F466C0C3
:100B1000883A09F47FC0B4C0803C09F4A7C0883C7F
:100B200009F4A4C0883B09F48AC0AAC08091430597
:100B300010C09091420580914105981770F5E091A1
:100B4000420581E08E0F80934205F0E0EF5DFA4FA1
:100B500080818093BB0085EC86C080931D058EC08C
:100B6000E091420581E08E0F809342058091BB00A9
:100B7000F0E0EF5DFA4F808390914205809141054E
:100B80006EC0E091420581E08E0F80934205809116
:100B9000BB00F0E0EF5DFA4F80838091200581116A
:100BA0006DC081E080931F0584EA61C083E080937B
:100BB0001E0510921C05CFCF80911C05803208F0D5
:100BC00051C0E0911C0581E08E0F80931C0580913F
:100BD000BB00F0E0E450FB4F8083BDCF85EC8093F9
:100BE000BC0010921E0580911C05803230F4E0910B
:100BF0001C05F0E0E450FB4F108260911C0570E092
:100C0000E091FA04F091FB048CEF94E009951092C6
:100C10001C0536C084E080931E051092F9041092E2
:100C2000F804E091F604F091F70409958091F80436
:100C3000811105C081E08093F8041092D604E09100
:100C4000F90481E08E0F8093F904F0E0EA52FB4F43
:100C500080818093BB009091F9048091F8049817EB
:100C600008F479CF85E88093BC000AC085EC8093B6
:100C7000BC0010921E0504C010921D050E944C037A
:100C8000FF91EF91BF91AF919F918F917F916F9164
:100C90005F914F913F912F910F900FBE0F901F903A
:100CA00018950F931F93CF93DF93CDB7DEB72C9793
:100CB0000FB6F894DEBF0FBECDBF8C0166EB72E0BD
:100CC000CE0101960E946609B8018AE296E00E9470
:100CD000660A68E873E180E090E00E94B5038AE26A
:100CE00096E00E941303181619067CF4CE010796AD
:100CF0000E947B09BE01695F7F4FCE0101960E9471
:100D0000FD08CE0107960E94610963E172E0CE0101
:100D100007960E946609BE01695F7F4FCE0101966A
:100D20000E94AE088C01CE0107960E946109101640
:100D300011064CF0BE016F5F7F4F8DE895E00E9479
:100D4000660A10E001C011E0CE0101960E9461091F
:100D5000812F2C960FB6F894DEBF0FBECDBFDF916A
:100D6000CF911F910F9108951F93CF93DF9300D0E0
:100D700000D000D0CDB7DEB785E00E94EB01892B13
:100D800099F066E172E08DE895E00E94520A83E0F6
:100D90000E94EB01019799F06EE572E08DE895E015
:100DA0000E94520A10E032C061E085E00E94140205
:100DB00060ED77E080E090E00E94B503E2CF62E76B
:100DC00072E08DE895E00E94520A62E872E0CE017E
:100DD00001960E946609CE0101960E945106182FC5
:100DE000CE0101960E94610911110AC068E272E009
:100DF0008DE895E00E94520A82E08093040106C0CB
:100E000065E472E08DE895E00E94520A812F2696F3
:100E10000FB6F894DEBF0FBECDBFDF91CF911F910B
:100E20000895EF92FF920F931F93CF93DF93CDB767
:100E3000DEB7C956D1090FB6F894DEBF0FBECDBFDD
:100E400045E050E089E6F82E2CEB32E085E293E0B5
:100E500001E010E060E070E00417150754F5FC01B4
:100E6000E756F109A081F901E559FF4FE081AE177E
:100E7000C8F4F901DE011196EF2C01900D92EA946D
:100E8000E1F7FC01D901EF2C01900D92EA94E1F712
:100E9000FE013196DC01EF2C01900D92EA94E1F70E
:100EA0006F5F7F4F0F5F1F4F27593F4F87599F4FEE
:100EB000D3CF672B19F04150510931F6C759DF4F95
:100EC0000FB6F894DEBF0FBECDBFDF91CF911F915B
:100ED0000F91FF90EF900895CF92DF92EF92FF92E3
:100EE0000F931F93CF93DF93CDB7DEB7C85DD109C2
:100EF0000FB6F894DEBF0FBECDBFC090D104D09026
:100F0000D204E090D304F090D40488ECC80ED11C35
:100F1000E11CF11C0E94EF036C157D058E059F05F9
:100F200008F47FC065E872E0CE018D529F4F0E94A9
:100F3000660982E0CE52DF4F8883C25DD0408CE0EC
:100F4000AC968FAFAC97AD961FAEAD9781E0AE96E5
:100F50008FAFAE97C952DF4F08811981C75DD0406E
:100F60000115110521F4AF961FAEAF971AC00336D5
:100F7000110510F003E610E0CD52DF4F6881798152
:100F8000C35DD040A8018AE690E08C0F9D1F0496B7
:100F90000E946E11EEE6F0E0EC0FFD1FE00FF11F76
:100FA000108265EA72E08DE895E00E94520A89E6B7
:100FB000FE01E659FF4FDE01119601900D928A95D0
:100FC000E1F7E4E2F3E080E090E02081211111C03C
:100FD00029E6289FD001299FB00D1124A454BD4FAC
:100FE000FE01319601900D922A95E1F70E941107BA
:100FF00009C00196E759FF4F8530910531F78FEF12
:10100000809304010E94EF036093D1047093D20493
:101010008093D3049093D404CE018D529F4F0E94AD
:101020006109C852DF4F0FB6F894DEBF0FBECDBFC7
:10103000DF91CF911F910F91FF90EF90DF90CF90B4
:1010400008950895CF92DF92EF92FF920F931F932E
:10105000CF93DF936C017A018B01C0E0D0E0CE1515
:10106000DF0589F0D8016D918D01D601ED91FC91DC
:101070000190F081E02DC6010995892B11F47E01C4
:1010800002C02196ECCFC701DF91CF911F910F9144
:10109000FF90EF90DF90CF9008950F931F930E94E1
:1010A000EF03609332067093330680933406909377
:1010B0003506E0912A06F0912B060284F385E02D97
:1010C0008AE296E0099597FF1FC00E94EF03009106
:1010D0003206109133062091340630913506DC013A
:1010E000CB01801B910BA20BB30B00912E0610912C
:1010F0002F06209130063091310680179107A20704
:10110000B307B8F28FEF9FEF1F910F9108950F93E0
:101110001F93CF93DF93EC0188819981009729F089
:101120002A813B812617370788F48B016F5F7F4F39
:101130000E948F10009761F0998388831B830A8334
:101140002C813D81232B11F4FC01108281E001C030
:1011500080E0DF91CF911F910F910895CF93DF939E
:10116000FC0124813581232B71F0FB01DC01CD9141
:10117000DC9160817181CE010E947D11009719F090
:101180008C1B9D0B02C08FEF9FEFDF91CF910895D5
:10119000EF92FF920F931F93CF93DF936115710529
:1011A00011F480E023C0FB0101900020E9F73197A2
:1011B000E61BF70BDC0114960D911C9115973097E7
:1011C000A1F07B01EC010E0F1F1FB8010E948708E0
:1011D000882339F3288139818C819D81B701820F61
:1011E000931F0E9467111D830C8381E0DF91CF91D3
:1011F0001F910F91FF90EF9008950F931F93CF933E
:10120000DF938C01EB01FC01808191810097B1F0AB
:10121000688179816115710579F0428153812C8152
:101220003D814217530740F00E9467118C819D81D8
:10123000F8019583848313C00E94F70F88819981F8
:10124000F801918380838A819B81938382838C813F
:101250009D8195838483198218821B821A821D8244
:101260001C82DF91CF911F910F910895EF92FF9211
:101270000F931F93CF93DF93EC017B018A01BA0197
:101280000E9487082881398181110DC021153105FF
:1012900019F0C9010E94F70F198218821D821C8261
:1012A0001B821A8206C01D830C83B701C9010E94EC
:1012B0006711CE01DF91CF911F910F91FF90EF90B9
:1012C0000895FC01808191810C94F70FFC0111823B
:1012D000108213821282158214826115710551F0F9
:1012E000FB0101900020E9F73197AF01461B570B36
:1012F0000C9436090895EF92FF920F931F93CF93AA
:10130000DF9300D0CDB7DEB78C0166EB72E00E94B0
:1013100066090E944D0897FD1EC089831A82F80154
:10132000E480F580FFEFEF1AFF0AB701C8010E94C1
:101330008708882371F3F8012081318184819581A8
:10134000BE016F5F7F4F820F931F0E946711F801EC
:10135000F582E482DECFC8010F900F90DF91CF912C
:101360001F910F91FF90EF9008956115710579F02D
:10137000FB0101900020E9F73197AF01461B570BA5
:10138000DC01ED91FC910280F381E02D099480E075
:1013900090E008958F929F92AF92BF92CF92DF928A
:1013A000EF92FF920F931F93CF93DF93CDB7DEB7EA
:1013B000A1970FB6F894DEBF0FBECDBF6C01990F99
:1013C000EE08FF08F7FE33C0E0918D05F0918E0521
:1013D0000190F081E02D6DE28DE895E009958C019A
:1013E00022273327A9012C193D094E095F0919A2AB
:1013F000CE0181967C019AE0892E912CA12CB12CF2
:10140000CA01B901A50194010E94260F605DF70190
:1014100062937F01211531054105510589F7BF010F
:101420008DE895E00E94B509080F191F20C0A7019B
:10143000960119A28E010F5D1F4F8AE0C82ED12C94
:10144000E12CF12CCA01B901A70196010E94260FD7
:10145000605DF80162938F01211531054105510549
:1014600089F7BF018DE895E00E94B5098C0164EB16
:1014700072E08DE895E00E94B509800F911FA1965A
:101480000FB6F894DEBF0FBECDBFDF91CF911F9195
:101490000F91FF90EF90DF90CF90BF90AF909F9013
:1014A0008F9008950F931F93CF93DF93EC010E94C9
:1014B000B5098C0164EB72E0CE010E94B509800F82
:1014C000911FDF91CF911F910F9108950F931F935B
:1014D000CF93DF93EC01E881F981DB0114964D9104
:1014E0005C9115976D917C910280F381E02D0995B7
:1014F0008C0164EB72E0CE010E94B509800F911F50
:10150000DF91CF911F910F910895CF93DF93CDB7C6
:10151000DEB7AA970FB6F894DEBF0FBECDBF7894A2
:1015200084B5826084BD84B5816084BD85B58260E8
:1015300085BD85B5816085BD80916E008160809399
:101540006E00109281008091810082608093810002
:101550008091810081608093810080918000816012
:10156000809380008091B10084608093B10080916D
:10157000B00081608093B00080917A008460809395
:101580007A0080917A00826080937A0080917A005C
:10159000816080937A0080917A00806880937A00DD
:1015A0001092C100E0919D05F0919E0582E080833C
:1015B000E0919D05F0919E051082E0919905F091D2
:1015C0009A051082E0919B05F0919C0580E1808353
:1015D0001092A505E091A105F091A20586E0808317
:1015E000E0919F05F091A005808180618083E0916A
:1015F0009F05F091A005808188608083E0919F0520
:10160000F091A005808180688083E0919F05F09132
:10161000A00580818F7D808310924506109244063C
:101620001092430610924206109241061092400614
:101630008DEC90E090934706809346069091360695
:10164000963108F057C025E530E0309341062093ED
:1016500040062BEC30E0309343062093420620E90D
:1016600030E030934506209344062091680098307E
:1016700050F031E09E3008F430E081E001C0880F86
:101680003A95EAF701C084E0822B80936800983095
:1016900038F09E3040F0963148F020E030E008C04D
:1016A0002DE630E005C02BE630E002C02CE630E04D
:1016B00030933E0620933D06983030F481E001C01F
:1016C000880F9A95EAF70EC0292F30E09E3018F463
:1016D0002850310902C02E50310981E001C0880F25
:1016E0002A95EAF780933F06809146069091470637
:1016F0000197F1F78091440690914506892B21F1DD
:101700008091BA029091BB0226E08A329207E1F002
:10171000009711F00E940D05809148068E7F8093FE
:1017200048061092B9021092B8028AE296E09093AD
:10173000BB028093BA02E0913D06F0913E06908193
:1017400080913F06892B808361E085E00E944402FE
:1017500060E083E00E94440260E082E00E94440274
:1017600061E471E0CE0101960E946609CE01019606
:101770000E945106CE0101960E9461098CE697E015
:101780009093010180930001809169008C7F8160BA
:1017900080936900E89A67E471E08DE895E00E9423
:1017A000520AC090CD04D090CE04E090CF04F090C7
:1017B000D00430E4C30E3CE9D31EE11CF11C0E94AE
:1017C000EF03C616D706E806F90608F0C8C194E28A
:1017D000E92E93E0F92E2FEB822E22E0922EC12CDF
:1017E000D12CF7018081813071F41082E856F10923
:1017F000108232961082F4011082F701E456F1094A
:1018000010820E941107F7018081823009F08FC198
:10181000F4018081813009F06FC16BE671E08DE8E1
:1018200095E00E94B509C6010E94CA090E94B4064B
:10183000882309F45DC160E971E0CE0185960E94BC
:101840006609B70164567109CE0185960E94C808E1
:1018500069E971E0CE0185960E94C8081A82198252
:101860001C821B821E821D826DA17EA161157105E5
:1018700031F049A55AA5CE0101960E943609CE0144
:1018800001960E945106182FCE0101960E9461090F
:10189000112309F428C16BE971E08DE895E00E94FD
:1018A000520A66EB72E0CE014F960E94660960EB29
:1018B00071E08AE296E00E94520A0E94EF032B0137
:1018C0003C01F8EC4F0EFFEA5F1E611C711C0E9488
:1018D000EF03641575058605970568F46EEA71E0F7
:1018E0008DE895E00E94B50968EE73E080E090E035
:1018F0000E94B503ECCF8AE296E00E94130318160B
:10190000190684F4CE0101960E947B09BE016F5F27
:101910007F4FCE014F960E94FD08CE0101960E9496
:101920006109E9CF1A8E198E1C8E1B8E1E8E1D8E9C
:101930006F8D78A16115710531F04BA15CA1CE01CD
:1019400049960E94360969EB71E0CE0101960E942A
:101950006609BE016F5F7F4FCE0149960E94AE08B7
:101960008C01CE0101960E946109101611060CF03F
:1019700095C069EB71E0CE0107960E946609BE0131
:10198000695F7F4FCE0149960E94AE0808963C01E0
:1019900062EC71E0CE010D960E9466098D8D9E8DE0
:1019A0006816790680F4098D1A8D6D857E85C801CB
:1019B000860D971D0E947D11009729F09C01201B28
:1019C000310B890102C00FEF1FEF69EB71E0CE010F
:1019D00043960E946609BE016D5E7F4FCE01499617
:1019E0000E94AE0808963C010817190728F4982FA2
:1019F000872D3801092F182F66EB72E0CE01019672
:101A00000E9466098D8D9E8D6816790680F5801777
:101A1000910708F48C01E98DFA8DE00FF11FA08089
:101A20001082698D7A8D660D771D6115710569F0DB
:101A3000FB0101900020E9F73197AF01461B570BDE
:101A4000CE0101960E9436090CC089819A810097C7
:101A500011F00E94F70F1A8219821E821D821C82C9
:101A60001B82898D9A8DFC01E00FF11FA082BE01BF
:101A70006F5F7F4FCE0149960E94FD08CE0101960F
:101A80000E946109CE0143960E946109CE010D9624
:101A90000E946109CE0107960E946109898D9A8D85
:101AA000009729F00E949F0E2B013C0103C0412C9E
:101AB000512C3201CE0149960E946109CE014F9608
:101AC0000E94610936E04316510468F464EC71E049
:101AD0008DE895E00E94520ACE0185960E94610928
:101AE000BB24B39407C0CE0185960E94610902C051
:101AF00082E0B82EF701B082F4011081123069F44F
:101B000063ED71E08DE895E00E94B509C6010E9481
:101B1000CA090E94B406F70110830E94EF03609384
:101B2000C9047093CA048093CB049093CC04FFEF54
:101B3000CF1ADF0A29E6E20EF11C39E6830E911C6A
:101B400085E0C816D10409F04CCE0E94EF036093E3
:101B5000CD047093CE048093CF049093D004C090B2
:101B6000C904D090CA04E090CB04F090CC04E0EE1D
:101B7000CE0EE3E9DE1EE4E0EE1EF11C0E94EF0350
:101B8000C616D706E806F90628F485E00E94EB01A0
:101B9000892B19F40E945E0104CE6AEF71E08DE892
:101BA00095E00E94520A60E085E00E941402F2CFA4
:101BB00083E391E090932B0680932A068AE296E0D5
:101BC0000C940D051092900510928F0588EE93E00D
:101BD000A0E0B0E08093910590939205A0939305C7
:101BE000B09394052FE031E030938E0520938D055E
:101BF00025EC30E030939A052093990524EC30E0F1
:101C000030939C0520939B0520EC30E030939E059B
:101C100020939D0521EC30E03093A00520939F0593
:101C200022EC30E03093A2052093A10526EC30E0B1
:101C30003093A4052093A3051092A6051092A70542
:101C40001092A8051092A90510924C0610924B060E
:101C500080934D0690934E06A0934F06B093500686
:101C600021E231E030934A062093490610922D0676
:101C700010922C0680932E0690932F06A093300688
:101C8000B093310683E391E090932B0680932A066C
:101C9000109241061092400610924306109242069E
:101CA000109245061092440610924706109246067E
:101CB000609148066E7F6D7F6093480666956170FF
:101CC00081E068278BE00E94140261E08BE00E94B3
:101CD0004402E9EBF0E0E491E0933A06E5EAF0E053
:101CE000E491F0E0EE0FFF1FEA57FF4F85919491CA
:101CF00090933C0680933B0660E08AE00E94440299
:101D00008091480681FD04C061E08AE00E941402CF
:101D10008AE080933606E8EBF0E0E491E093370642
:101D2000E4EAF0E0E491F0E0EE0FFF1FE057FF4F30
:101D300085919491909339068093380608951F9366
:101D4000FC0199278827BC01E89411911032E9F32E
:101D5000193010F01E30C8F31B3251F01D3249F417
:101D6000689406C00E94C60E610F711D811D911DF1
:101D7000119110531A30B0F33EF490958095709500
:101D800061957F4F8F4F9F4F1F910895592F482F77
:101D9000372F262F660F771F881F991F660F771F13
:101DA000881F991F620F731F841F951F660F771F6F
:101DB000881F991F08952F923F924F925F926F92C2
:101DC0007F928F929F92AF92BF92CF92DF92EF92CB
:101DD000FF920F931F93CF93DF93CDB7DEB7CA1B4C
:101DE000DB0B0FB6F894DEBF0FBECDBF09942A8877
:101DF000398848885F846E847D848C849B84AA841F
:101E0000B984C884DF80EE80FD800C811B81AA81AB
:101E1000B981CE0FD11D0FB6F894DEBF0FBECDBF76
:101E2000ED01089597FB072E16F4009407D077FD77
:101E300009D00E94480F07FC05D03EF4909581958B
:101E40009F4F0895709561957F4F0895A1E21A2ED6
:101E5000AA1BBB1BFD010DC0AA1FBB1FEE1FFF1F4E
:101E6000A217B307E407F50720F0A21BB30BE40B9E
:101E7000F50B661F771F881F991F1A9469F76095E5
:101E80007095809590959B01AC01BD01CF0108959F
:101E9000AA1BBB1B51E107C0AA1FBB1FA617B70790
:101EA00010F0A61BB70B881F991F5A95A9F78095AC
:101EB0009095BC01CD010895EE0FFF1F0590F491A0
:101EC000E02D0994CF93DF938230910510F482E0E6
:101ED00090E0E0915706F091580620E030E0C0E035
:101EE000D0E0309711F14081518148175907C0F077
:101EF0004817590761F482819381209719F09B83D9
:101F00008A832BC0909358068093570626C02115CC
:101F1000310519F04217530718F49A01BE01DF0189
:101F2000EF010280F381E02DDCCF2115310509F1AD
:101F3000281B390B2430310590F412968D919C9119
:101F400013976115710521F0FB019383828304C00F
:101F50009093580680935706FD01329644C0FD01C8
:101F6000E20FF31F81939193225031092D933C93FB
:101F70003AC02091550630915606232B41F420910A
:101F800007013091080130935606209355062091A1
:101F90000501309106012115310541F42DB73EB7F9
:101FA0004091090150910A01241B350BE09155061F
:101FB000F0915606E217F307A0F42E1B3F0B2817EB
:101FC000390778F0AC014E5F5F4F2417350748F0B2
:101FD0004E0F5F1F50935606409355068193919381
:101FE00002C0E0E0F0E0CF01DF91CF9108950F93C0
:101FF0001F93CF93DF93009709F48CC0FC013297B5
:10200000138212820091570610915806011511058E
:1020100081F420813181820F931F209155063091E8
:1020200056062817390779F5F0935606E0935506BA
:1020300071C0D80140E050E0AE17BF0750F41296CF
:102040002D913C911397AD012115310509F1D9016D
:10205000F3CF9D01DA013383228360817181860F82
:10206000971F8217930769F4EC0128813981260FA5
:10207000371F2E5F3F4F318320838A819B8193835B
:102080008283452B29F4F0935806E093570642C00B
:102090001396FC93EE931297ED01499159919E018D
:1020A000240F351FE217F30771F480819181840FAB
:1020B000951F029611969C938E938281938113961D
:1020C0009C938E931297E0E0F0E0D80112968D91E8
:1020D0009C911397009719F0F8018C01F6CF8D9120
:1020E0009C9198012E5F3F4F820F931F20915506C0
:1020F000309156062817390769F4309729F4109261
:1021000058061092570602C0138212821093560688
:1021100000935506DF91CF911F910F910895A0E094
:10212000B0E0E5E9F0E10C94DF0EEC01009721F45A
:10213000CB010E94620FB8C0FC01E60FF71F9C01A3
:1021400022503109E217F30708F4ACC0D9010D9110
:102150001C91119706171707B0F00530110508F408
:102160009FC0C80104978617970708F499C00250CA
:102170001109061B170B019311936D937C93CF01EB
:102180000E94F70F8DC05B01A01AB10A4C01800EAE
:10219000911EA0915706B091580640E050E0E12C06
:1021A000F12C109709F44AC0A815B905D1F56D9026
:1021B0007C901197630182E0C80ED11CCA14DB0425
:1021C00080F1A3014A195B096A0182E0C80ED11CA3
:1021D0001296BC9012971396AC91B5E0CB16D10431
:1021E00040F0B282A38351834083D9016D937C93E5
:1021F0000AC00E5F1F4FC301800F911FF901918329
:102200008083EB2DFA2FE114F10431F0D7011396FE
:10221000FC93EE93129744C0F0935806E093570650
:102220003FC08D919C9111974817590708F4AC0154
:102230007D0112960D90BC91A02DB3CF80915506D3
:102240009091560688159905E1F446175707C8F48A
:102250008091050190910601009741F48DB79EB7DA
:102260004091090150910A01841B950BE817F90769
:10227000C8F4F0935606E0935506F9017183608324
:102280000FC0CB010E94620F7C01009759F0A8019A
:10229000BE010E945E11CE010E94F70FC70104C06B
:1022A000CE0102C080E090E0CDB7DEB7EEE00C9446
:1022B000FB0E81E090E0F8940C949711FB01DC0197
:1022C00002C001900D9241505040D8F70895FB0193
:1022D000DC0101900D920020E1F70895FB01DC0183
:1022E0004150504048F001900D920020C9F701C0C4
:1022F0001D9241505040E0F70895FB015191552344
:10230000A9F0BF01DC014D9145174111E1F759F4E6
:10231000CD010190002049F04D9140154111C9F3C4
:10232000FB014111EFCF81E090E00197089510E0AB
:10233000C2E6D0E004C0FE010E945C0F2196C336C5
:08234000D107C9F7F894FFCFA3
:10234800A502A502FE00005906800000000000F565
:102358000022088D003C01BE009C00B00000000077
:1023680000A0038C03B2037E03850382037F03006E
:10237800000000BF022208B203BE0213032B03A60B
:10238800024154204530003D3D526F636B426C6FF3
:10239800636B203936303320577261707065722054
:1023A80053746172742075703D3D00417474656D9D
:1023B8007074696E6720746F2073656E642074652D
:1023C8007874206D6573736167652049443A20000D
:1023D80041542B53424457543D22002020537461EA
:1023E8007274696E672065786368616E67652E0030
:1023F80041542B5342444958002B53424449583ABC
:1024080020002C0020204D6573736167652073657B
:102418006E7400417474656D7074696E6720746FB2
:102428002073656E642062696E617279206D6573D0
:10243800736167652049443A200050757474696E69
:1024480067206D6F64756C6520746F20736C6565AB
:10245800702E004F4B0020204D6F64756C6520690D
:1024680073206177616B650020204D6F64756C6522
:102478002063616E206E6F7420636F6D6D756E6979
:10248800636174650020204D6F64756C652063611D
:102498006E20436F6D6D756E6963617465002020F1
:1024A8004E6574776F726B206E6F7420666F756EF1
:1024B800640020204E6574776F726B20666F756EAE
:1024C8006400415400596179202D204920646964D1
:1024D800206E6F7420627265616B20736F6D657416
:1024E80068696E6700416464696E67204D6573733F
:0824F800616765000D0A000098
:00000001FF
