:100000000C9463000C94FB040C94D4040C9422050F
:100010000C9422050C9422050C948B000C948B00FC
:100020000C948B000C948B000C948B000C948B0024
:100030000C948B000C948B000C948B000C948B0014
:100040000C948A040C948B000C94EC030C94C6035F
:100050000C948B000C948B000C948B000C948B00F4
:100060000C949C050C948B000000000024002700D9
:100070002A0000000008000201000003040700003D
:1000800000000000000000000000250028002B00F8
:1000900000000000230026002900040404040404D6
:1000A0000404020202020202030303030303010227
:1000B00004081020408001020408102001020408F6
:1000C0001020010CE30811241FBECFEFD8E0DEBFE3
:1000D000CDBF12E0A0E0B1E0E4E9F0E202C005909B
:1000E0000D92A23CB107D9F726E0A2ECB2E001C024
:1000F0001D92A73BB207E1F710E0C2E6D0E004C0D2
:100100002197FE010E942E0DC136D107C9F70E942A
:10011000ED080C943D100C94000081E08093C60221
:100120000895FC01538D448D252F30E0842F90E0FD
:10013000821B930B541710F0CF96089501970895E2
:10014000FC01918D828D981761F0828DDF01A80FDF
:10015000B11D5D968C91928D9F5F9F73928F90E001
:1001600008958FEF9FEF0895FC01918D828D981770
:1001700031F0828DE80FF11D858D90E008958FEFAD
:100180009FEF0895FC01918D228D892F90E0805C76
:100190009F4F821B91098F73992708958FEE95E0E9
:1001A0000E94C20021E0892B09F420E0822F0895EB
:1001B000FC01848DDF01A80FB11DA35ABF4F2C9104
:1001C000848D90E001968F739927848FA689B789D3
:1001D0002C93A089B1898C9180648C93938D848DAC
:1001E000981306C00288F389E02D80818F7D80837B
:1001F0000895EF92FF920F931F93CF93DF93EC013B
:1002000081E0888F9B8D8C8D981305C0E889F989D2
:10021000808185FD24C0F62E0B8D10E00F5F1F4FEF
:100220000F731127E02E8C8DE8120CC00FB607FC5F
:10023000FACFE889F989808185FFF5CFCE010E9448
:10024000D800F1CF8B8DFE01E80FF11DE35AFF4F6F
:10025000F0820B8FEA89FB898081806207C0EE897A
:10026000FF896083E889F98980818064808381E0E7
:1002700090E0DF91CF911F910F91FF90EF90089543
:10028000CF93DF93EC01888D8823C9F0EA89FB893D
:10029000808185FD05C0A889B9898C9186FD0FC034
:1002A0000FB607FCF5CF808185FFF2CFA889B98909
:1002B0008C9185FFEDCFCE010E94D800E7CFDF9172
:1002C000CF91089580E090E0892B29F00E94CE0024
:1002D00081110C9400000895833081F028F481305E
:1002E00099F08230A1F008958730A9F08830B9F0F4
:1002F0008430D1F4809180008F7D03C08091800094
:100300008F7780938000089584B58F7702C084B57D
:100310008F7D84BD08958091B0008F7703C0809158
:10032000B0008F7D8093B0000895CF93DF93282F86
:1003300030E0F901EE58FF4F8491F901E255FF4F8B
:10034000D491F901E656FF4FC491CC2391F081116D
:100350000E946C01EC2FF0E0EE0FFF1FE057FF4F03
:10036000A591B491EC91ED2381E090E021F480E03F
:1003700002C080E090E0DF91CF9108953FB7F894FC
:1003800080917B0390917C03A0917D03B0917E03CB
:1003900026B5A89B05C02F3F19F00196A11DB11DE0
:1003A0003FBFBA2FA92F982F8827820F911DA11D1B
:1003B000B11DBC01CD0142E0660F771F881F991F58
:1003C0004A95D1F708958F929F92AF92BF92CF92A4
:1003D000DF92EF92FF926B017C010E94BE014B0104
:1003E0005C01C114D104E104F104F1F00E94BE01EA
:1003F000DC01CB0188199909AA09BB09883E934001
:10040000A105B10570F321E0C21AD108E108F10895
:1004100088EE880E83E0981EA11CB11CC114D10483
:10042000E104F10419F7DDCFFF90EF90DF90CF905A
:10043000BF90AF909F908F9008952FB7F8946091E0
:100440007703709178038091790390917A032FBF9D
:100450000895089520918103309182032817390768
:1004600071F490917F0380918003981741F0E0919F
:100470007F03F0E0EA5CFC4F808190E008958FEF0D
:100480009FEF089508951F93CF93DF93DC015C964F
:100490002D913C915D972115310539F481E090E073
:1004A00013969C938E9312973DC05196ED91FC91BB
:1004B000529750969C915097892F80951FB75E96C2
:1004C0004C915E9741FB772770F941FD6095F89458
:1004D0004081772311F0492B01C048234083E90173
:1004E0002197F1F748E0508160FF02C0592B01C00D
:1004F00058235083E9012197F1F76695415099F708
:10050000772321F090818923808303C08081982BF9
:1005100090831FBF5C968D919C915D970197F1F739
:1005200021E030E0C901DF91CF911F910895209122
:100530008103309182032817390771F48091800379
:1005400020917F0390E0805C9F4F821B910960E4C3
:1005500070E00E94E40C089580E090E008952091FE
:1005600081033091820328173907B9F490917F03F2
:1005700080918003981789F0E0917F03F0E0EA5CB6
:10058000FC4F808120917F0330E02F5F3F4F2F731E
:10059000332720937F0390E008958FEF9FEF089516
:1005A000E0918103F0918203E817F90769F4A389C8
:1005B000B4899C918589809589238C9310928203BC
:1005C0001092810381E0089580E0089585ED809385
:1005D000BC008091BC0084FDFCCF109210030895F4
:1005E0004091EA02262F30E0240F311D21323105DF
:1005F000DCF4209110032430C9F4FC0180E090E089
:10060000861758F43091EA022191DC01A853BD4FBE
:10061000A30FB11D2C930196F3CF8091EA02680FCE
:100620006093EA0280E0089581E0089582E00895F1
:1006300008958FEF9FEF08958FEF9FEF08958091BA
:10064000C70290E09195819591090895CF93DF932A
:1006500000D0CDB7DEB7CB01642F49835A830E9407
:10066000F0024981842F5A81952F0F900F90DF91CE
:10067000CF910895CF93DF931F92CDB7DEB76983F3
:1006800061E0CE0101960E94F00281E090E00F90BF
:10069000DF91CF910895089580E090E008950E9441
:1006A000340DCF92DF92EF92FF92CF93DF93CDB7CD
:1006B000DEB7CC5CD1090FB6F894DEBF0FBECDBF5C
:1006C000C090C202D090C302E090C402F090C50274
:1006D00088ECC80ED11CE11CF11C0E941D026C1597
:1006E0007D058E059F0508F443C082E0C453DF4FAB
:1006F0008883CC5CD0409CE099839DE09A838B8377
:100700006AE371E0CE0104960E94440D60E471E05A
:100710008FEE95E00E94CF0880915204882359F013
:1007200080911E05882351F08091EA05811116C041
:1007300022E030E005C020E030E002C021E030E0FF
:100740008CEC829FD001839FB00D1124A957BC4F20
:10075000FE01319601900D928A95E1F70E941D02EB
:100760006093C2027093C3028093C4029093C50247
:10077000C453DF4F0FB6F894DEBF0FBECDBFDF917D
:10078000CF91FF90EF90DF90CF9008951F920F923E
:100790000FB60F9211242F933F934F935F936F9354
:1007A0007F938F939F93AF93BF93EF93FF938FEEBE
:1007B00095E00E94D800FF91EF91BF91AF919F917A
:1007C0008F917F916F915F914F913F912F910F90FA
:1007D0000FBE0F901F9018951F920F920FB60F9299
:1007E00011242F938F939F93EF93FF93E091FF0535
:1007F000F09100068081E0910506F091060682FDE9
:1008000012C09081809108068F5F8F732091090636
:10081000821751F0E0910806F0E0E151FA4F958F10
:100820008093080601C08081FF91EF919F918F9185
:100830002F910F900FBE0F901F9018951F93CF937D
:10084000DF93282F30E0F901EE58FF4F8491F90132
:10085000E255FF4FD491F901E656FF4FC491CC23E6
:10086000C9F0162F81110E946C01EC2FF0E0EE0F01
:10087000FF1FEA57FF4FA591B4918FB7F89411115C
:1008800005C09C91ED2FE095E92302C0EC91ED2B82
:10089000EC938FBFDF91CF911F910895CF93DF939A
:1008A00090E0FC01E255FF4F2491FC01E656FF4F1A
:1008B0008491882361F190E0880F991FFC01E85929
:1008C000FF4FC591D491FC01EA57FF4FA591B49118
:1008D000611109C09FB7F89488812095822388838D
:1008E000EC912E230BC0623061F49FB7F8943881ED
:1008F000822F809583238883EC912E2B2C939FBF8E
:1009000006C08FB7F894E8812E2B28838FBFDF9124
:10091000CF9108951F920F920FB60F9211242F932B
:100920003F938F939F93AF93BF9380917703909161
:100930007803A0917903B0917A033091760323E094
:10094000230F2D3720F40196A11DB11D05C026E807
:10095000230F0296A11DB11D209376038093770388
:1009600090937803A0937903B0937A0380917B03EB
:1009700090917C03A0917D03B0917E030196A11D0F
:10098000B11D80937B0390937C03A0937D03B09370
:100990007E03BF91AF919F918F913F912F910F90C7
:1009A0000FBE0F901F9018951F920F920FB60F92C7
:1009B00011242F933F934F935F936F937F938F9364
:1009C0009F93AF93BF93EF93FF93E0910201F09158
:1009D00003010995FF91EF91BF91AF919F918F9185
:1009E0007F916F915F914F913F912F910F900FBE2B
:1009F0000F901F9018951F920F920FB60F9211240F
:100A00002F933F934F935F936F937F938F939F9316
:100A1000AF93BF93EF93FF93E0910001F091010139
:100A20000995FF91EF91BF91AF919F918F917F9128
:100A30006F915F914F913F912F910F900FBE0F904B
:100A40001F9018951F920F920FB60F9211242F939B
:100A50003F934F935F936F937F938F939F93AF9346
:100A6000BF93EF93FF93E0918103F091820330975E
:100A700009F451C0968DA685B785858591FF04C080
:100A80009C91892329F447C09C91892309F043C094
:100A9000A389B4899C918589809589238C938689C3
:100AA00097890197F1F7608D718DA685B78555857A
:100AB00038E020E0CB010197F1F7822F90E0959587
:100AC0008795282F4C91452309F02068315091F7E4
:100AD000868D81FD20958091800390E001968F7333
:100AE000992730917F03381749F0A0918003B0E037
:100AF000AA5CBC4F2C938093800303C0868D8160D9
:100B0000868F828D938D0197F1F7A389B4899C918B
:100B10008589892B8C93FF91EF91BF91AF919F9124
:100B20008F917F916F915F914F913F912F910F9096
:100B30000FBE0F901F9018951F920F920FB60F9235
:100B400011242F933F934F935F936F937F938F93D2
:100B50009F93AF93BF93EF93FF938091B900887FEA
:100B6000803609F49CC068F5883209F45BC090F4C3
:100B7000803109F454C038F4882309F4F6C0883071
:100B800009F44DC0F6C0883109F44CC0803209F434
:100B90005DC0EFC0803409F468C048F4803309F4C4
:100BA00055C0883309F0E5C080930F03D8C0803565
:100BB00009F44FC0883509F45DC0883409F0D9C004
:100BC000D6C0883909F4C7C0A8F4883709F467C0CB
:100BD00038F4883609F463C0803709F460C0C9C0AE
:100BE000883809F4B8C0803909F45FC0803809F04A
:100BF000C0C05BC0803B09F486C038F4803A09F479
:100C000066C0883A09F47FC0B4C0803C09F4A7C02C
:100C1000883C09F4A4C0883B09F48AC0AAC080912A
:100C2000350310C09091340380913303981770F509
:100C3000E091340381E08E0F80933403F0E0ED5EA9
:100C4000FC4F80818093BB0085EC86C080930F03AE
:100C50008EC0E091340381E08E0F80933403809145
:100C6000BB00F0E0ED5EFC4F8083909134038091F7
:100C700033036EC0E091340381E08E0F8093340320
:100C80008091BB00F0E0ED5EFC4F80838091120309
:100C900081116DC081E08093110384EA61C083E01B
:100CA0008093100310920E03CFCF80910E038032F9
:100CB00008F051C0E0910E0381E08E0F80930E0387
:100CC0008091BB00F0E0E251FD4F8083BDCF85EC09
:100CD0008093BC001092100380910E03803230F498
:100CE000E0910E03F0E0E251FD4F108260910E039F
:100CF00070E0E091EC02F091ED028EEE92E0099549
:100D000010920E0336C084E0809310031092EB0221
:100D10001092EA02E091E802F091E90209958091CF
:100D2000EA02811105C081E08093EA021092C802B4
:100D3000E091EB0281E08E0F8093EB02F0E0E8534C
:100D4000FD4F80818093BB009091EB028091EA027D
:100D5000981708F479CF85E88093BC000AC085EC29
:100D60008093BC001092100304C010920F030E94E5
:100D7000E602FF91EF91BF91AF919F918F917F918B
:100D80006F915F914F913F912F910F900FBE0F90F8
:100D90001F9018956115710579F0FB0101900020F5
:100DA000E9F73197AF01461B570BDC01ED91FC9140
:100DB0000280F381E02D099480E090E00895CF92C5
:100DC000DF92EF92FF927C010E941D0228EE33E039
:100DD000E29E6001E39ED00CF29ED00C11240D2CFB
:100DE000000CEE08FF08C60ED71EE81EF91E0E9472
:100DF0001D026C157D058E059F0568F46AED71E096
:100E00008FEE95E00E94CA0668EE73E080E090E005
:100E10000E94E301ECCFFF90EF90DF90CF90089518
:100E2000CF92DF92EF92FF920F931F93CF93DF93B6
:100E3000CDB7DEB7C456D1090FB6F894DEBF0FBEEA
:100E4000CDBFBC018CE896E00E94CF0885E090E021
:100E50000E94DF068E010F5F1F4F6E0184E6C80EF1
:100E6000D11CF02EE12E8CE896E00E949702181615
:100E700019065CF40C151D0541F08CE896E00E9403
:100E8000AF02F80181938F01EECF6FE471E08F2DF7
:100E90009E2D0E944B0D892B41F46F2D7E2D8FEEE0
:100EA00095E00E94CF0880E001C081E0CC59DF4F7F
:100EB0000FB6F894DEBF0FBECDBFDF91CF911F916B
:100EC0000F91FF90EF90DF90CF900895CF9385E042
:100ED0000E949501892B51F461E085E00E941E0477
:100EE00060ED77E080E090E00E94E30162E571E070
:100EF0008FEE95E00E94CF0884E691E00E941007F3
:100F0000C82F882319F189E00E949501019741F0CB
:100F10006AE671E08FEE95E00E94CF08C0E016C04F
:100F20006EE771E08FEE95E00E94CF088EE891E0C9
:100F30000E941007C82F811103C061E971E002C04F
:100F40006EEA71E08FEE95E00E94CF088C2FCF9172
:100F50000895CF92DF92EF92FF920F931F93CF935A
:100F6000DF93CDB7DEB7C85CD1090FB6F894DEBF0A
:100F70000FBECDBF67EC71E08FEE95E00E94CF0809
:100F800019821A821B821C82FE01359684ECDF01D5
:100F90001D928A95E9F76CED71E08CE896E00E946D
:100FA000CF088EE190E00E94DF068E010F5F1F4F99
:100FB0006E01B9ECCB0ED11C78018CE896E00E9452
:100FC0009702181619065CF40C151D0541F08CE803
:100FD00096E00E94AF02F80181938F01EECF60EF9F
:100FE00071E0C7010E944B0D08960E94BE0C8C0157
:100FF0000E9447080630110540F465EE71E08FEE5F
:1010000095E00E94CF0881E007C06AEE71E08FEEA4
:1010100095E00E94CF0880E0C853DF4F0FB6F894E8
:10102000DEBF0FBECDBFDF91CF911F910F91FF901B
:10103000EF90DF90CF900895CF92DF92EF92FF92E2
:101040000F931F93CF93DF936C017A018B01C0E064
:10105000D0E0CE15DF0589F0D8016D918D01D60164
:10106000ED91FC910190F081E02DC6010995892B4D
:1010700011F47E0102C02196ECCFC701DF91CF9120
:101080001F910F91FF90EF90DF90CF9008958F9276
:101090009F92AF92BF92CF92DF92EF92FF920F9307
:1010A0001F93CF93DF93CDB7DEB7A1970FB6F89418
:1010B000DEBF0FBECDBF6C01990FEE08FF08F7FE33
:1010C00033C0E091EF05F091F0050190F081E02D43
:1010D0006DE28FEE95E009958C0122273327A90157
:1010E0002C193D094E095F0919A2CE0181967C0198
:1010F0009AE0892E912CA12CB12CCA01B901A5012D
:1011000094010E94F80C605DF70162937F01211544
:1011100031054105510589F7BF018FEE95E00E9429
:10112000CA06080F191F20C0A701960119A28E0137
:101130000F5D1F4F8AE0C82ED12CE12CF12CCA0183
:10114000B901A70196010E94F80C605DF801629355
:101150008F01211531054105510589F7BF018FEE3A
:1011600095E00E94CA068C016FEB72E08FEE95E06D
:101170000E94CA06800F911FA1960FB6F894DEBF99
:101180000FBECDBFDF91CF911F910F91FF90EF90D8
:10119000DF90CF90BF90AF909F908F9008950F9366
:1011A0001F93CF93DF93EC010E94CA068C016FEB73
:1011B00072E0CE010E94CA06800F911FDF91CF918D
:1011C0001F910F9108958CE291E090938D0680938A
:1011D0008C068CE896E00C94D002CF93DF93CDB7C9
:1011E000DEB7C65FD1090FB6F894DEBF0FBECDBF24
:1011F000789484B5826084BD84B5816084BD85B5F2
:10120000826085BD85B5816085BD80916E008160FD
:1012100080936E00109281008091810082608093A3
:1012200081008091810081608093810080918000A5
:101230008160809380008091B10084608093B100D0
:101240008091B00081608093B00080917A008460CA
:1012500080937A0080917A00826080937A008091F6
:101260007A00816080937A0080917A008068809310
:101270007A001092C100E091FF05F091000682E033
:101280008083E091FF05F09100061082E091FB055C
:10129000F091FC051082E091FD05F091FE0580E1E2
:1012A000808310920706E0910306F091040686E021
:1012B0008083E0910106F091020680818061808345
:1012C000E0910106F0910206808188608083E091C0
:1012D0000106F0910206808180688083E09101061A
:1012E000F091020680818F7D80831092A706109274
:1012F000A6061092A5061092A4061092A3061092BC
:10130000A2068DEC90E09093A9068093A806909198
:101310009806963108F057C025E530E03093A306D3
:101320002093A2062BEC30E03093A5062093A40670
:1013300020E930E03093A7062093A60620916800AC
:10134000983050F031E09E3008F430E081E001C088
:10135000880F3A95EAF701C084E0822B80936800F9
:10136000983038F09E3040F0963148F020E030E080
:1013700008C02DE630E005C02BE630E002C02CE6C8
:1013800030E03093A00620939F06983030F481E03F
:1013900001C0880F9A95EAF70EC0292F30E09E30E1
:1013A00018F42850310902C02E50310981E001C0E3
:1013B000880F2A95EAF78093A1068091A80690915C
:1013C000A9060197F1F78091A6069091A706892BAF
:1013D00021F1809181039091820326E08C3892075D
:1013E000E1F0009711F00E94D0028091AA068E7F52
:1013F0008093AA061092800310927F038CE896E0F7
:101400009093820380938103E0919F06F091A00660
:1014100090818091A106892B808361E085E00E9404
:101420004E0460E089E00E944E0460E082E00E9489
:101430004E0460E083E00E944E0489EF91E00E9438
:10144000100781E593E09093010180930001809162
:1014500069008C7F816080936900E89A8DE890E054
:10146000909303018093020180916900837F8460DF
:1014700080936900E99A6FEF71E08FEE95E00E942A
:10148000CF089E012B5F3F4FC051DF4F3983288328
:10149000C05FD0401E013CED230E311CCE010196F1
:1014A0007C019E0127533F4FCE50DF4F3983288365
:1014B000C25FD0408090EB059090EC05A090ED05C8
:1014C000B090EE0530E4830E3CE9931EA11CB11CE4
:1014D0000E941D0286169706A806B90608F041C1AB
:1014E00002E514E087E8682E83E0782E99E8492E1B
:1014F00093E0592E2AE8C22E23E0D22EA12CB12C43
:10150000D8018C91813039F41C92F3011082D20100
:101510001C92F6011082D8018C91823009F004C12E
:10152000F2018081813009F04EC063E272E08FEEFB
:1015300095E00E94CA06C5010E9447080E946607FE
:101540008823A1F1DF92CF92F801EA5CF109808152
:101550001F928F93D3018C911F928F93A8E4B2E0D6
:10156000BF93AF93FF92EF920E94650DB7018FEE8C
:1015700095E00E94CF08C7010E9410070FB6F894AB
:10158000DEBF0FBECDBF8823B9F00E94A907882314
:1015900099F06EE572E08FEE95E00E94CF0831E0A1
:1015A000CA50DF4F3883C65FD04006C022E0CA5021
:1015B000DF4F2883C65FD040CA50DF4F2881C65F07
:1015C000D040D8012C93D2018C91823009F0A2C076
:1015D00019821A821B821C82C051DF4FE881F98177
:1015E000C05FD04024EC11922A95E9F76DE672E0D5
:1015F0008FEE95E00E94CA06C5010E9447080E942E
:101600006607811102C082E083C01F9238EC3F93CD
:10161000A4E9B2E0BF93AF933F922F920E94650D71
:10162000B1018CE896E00E94CF0885E090E00E942E
:10163000DF06CC50DF4FF982E882C45FD0400F90C4
:101640000F900F900F900F900F9047018CE896E04D
:101650000E949702181619068CF4CE50DF4F28818D
:101660003981C25FD0408216930641F08CE896E043
:101670000E94AF02D4018D934D01E8CF69EB72E077
:10168000C7010E944B0D892B09F4BDCF812C912CF1
:1016900080E090E0F301E80FF91F2381820E911C96
:1016A00027FD9A940196883C9105A1F7B6018CE834
:1016B00096E00E94CA06682D8CE896E00E944302DC
:1016C00082E090E00E94DF068CE896E00E9497029C
:1016D000181619060CF473C060E370E0C7010E948D
:1016E000390D892B09F48FCF6FE471E0C7010E9497
:1016F0004B0D892B09F487CF0E94A907882309F491
:1017000082CF6EE572E08FEE95E00E94CF0881E017
:10171000D8018C930E941D0260938303709384030D
:101720008093850390938603BFEFAB1ABB0A0453E3
:101730001F4FECEC6E0E711CFCEC4F0E511C2CEC90
:10174000C20ED11C33E0A316B10409F0D9CE0E9419
:101750001D026093EB057093EC058093ED0590936B
:10176000EE058090830390908403A0908503B09051
:10177000860380EE880E83E9981E84E0A81EB11CC3
:101780000E941D0286169706A806B90678F485E021
:101790000E949501892B51F060EA72E08FEE95E08E
:1017A0000E94CF0860E085E00E941E0468EE73E0AE
:1017B00080E090E00E94E3010E9462017BCECC5069
:1017C000DF4F28813981C45FD040CE50DF4F888100
:1017D0009981C25FD0402817390709F47DCF8CE882
:1017E00096E00E94AF02CC50DF4FA881B981C45F60
:1017F000D0408D93CC50DF4FB983A883C45FD040D5
:1018000063CF1092F2051092F10588EE93E0A0E00C
:10181000B0E08093F3059093F405A093F505B093A1
:10182000F60528E031E03093F0052093EF0525EC34
:1018300030E03093FC052093FB0524EC30E030933E
:10184000FE052093FD0520EC30E030930006209348
:10185000FF0521EC30E0309302062093010622ECD4
:1018600030E0309304062093030626EC30E03093FA
:10187000060620930506109208061092090610929B
:101880000A0610920B061092AE061092AD068093D7
:10189000AF069093B006A093B106B093B2062AE1CA
:1018A00031E03093AC062093AB0610928F06109275
:1018B0008E068093900690939106A0939206B09323
:1018C00093068CE291E090938D0680938C061092A3
:1018D000A3061092A2061092A5061092A4061092DA
:1018E000A7061092A6061092A9061092A80660916B
:1018F000AA066E7F6D7F6093AA066695617081E08F
:1019000068278BE00E941E0461E08BE00E944E0479
:10191000E9EBF0E0E491E0939C06E5EAF0E0E49185
:10192000F0E0EE0FFF1FEA57FF4F859194919093DF
:101930009E0680939D0660E08AE00E944E0480919E
:10194000AA0681FD04C061E08AE00E941E048AE0CC
:1019500080939806E8EBF0E0E491E0939906E4EADE
:10196000F0E0E491F0E0EE0FFF1FE057FF4F8591AC
:10197000949190939B0680939A060895FC01882782
:101980009927E89421912032E9F3293010F02E3084
:10199000C8F32B3241F02D3239F4689404C00E9410
:1019A000DC0C820F911D219120532A30C0F31EF4CC
:1019B000909581959F4F08957AE0979F902D879FEE
:1019C000802D910D1124089597FB072E16F4009495
:1019D00007D077FD09D00E941A0D07FC05D03EF410
:1019E000909581959F4F0895709561957F4F0895CB
:1019F000A1E21A2EAA1BBB1BFD010DC0AA1FBB1F13
:101A0000EE1FFF1FA217B307E407F50720F0A21B84
:101A1000B30BE40BF50B661F771F881F991F1A94F1
:101A200069F760957095809590959B01AC01BD011B
:101A3000CF010895AA1BBB1B51E107C0AA1FBB1F02
:101A4000A617B70710F0A61BB70B881F991F5A954A
:101A5000A9F780959095BC01CD010895EE0FFF1F69
:101A60000590F491E02D099481E090E0F8940C94B5
:101A70003D10FC018191861721F08823D9F7992721
:101A800008953197CF010895FB01DC0101900D927B
:101A90000020E1F70895FB0151915523A9F0BF0102
:101AA000DC014D9145174111E1F759F4CD01019049
:101AB000002049F04D9140154111C9F3FB0141113E
:101AC000EFCF81E090E001970895AEE0B0E0EBE663
:101AD000FDE00C9414100D891E8986E08C831A8316
:101AE00009838FEF9FE79E838D83AE01475E5F4F33
:101AF0006F89788DCE0101960E94880D2F813885DF
:101B0000F801E20FF31F10822E96E4E00C943010DF
:101B1000ACE0B0E0EEE8FDE00C9406107C016B0157
:101B20008A01FC0117821682838181FFBDC1CE012B
:101B300001964C01F7019381F60193FD859193FF86
:101B400081916F01882309F4ABC1853239F493FD8B
:101B5000859193FF81916F01853229F4B70190E05F
:101B60000E94700FE7CF512C312C20E02032A0F4DE
:101B70008B3269F030F4803259F0833269F420619D
:101B80002CC08D3239F0803339F4216026C02260B8
:101B9000246023C0286021C027FD27C030ED380F06
:101BA0003A3078F426FF06C0FAE05F9E300D11242B
:101BB000532E13C08AE0389E300D1124332E20623C
:101BC0000CC08E3221F426FD6BC1206406C08C3619
:101BD00011F4206802C0883641F4F60193FD859126
:101BE00093FF81916F018111C1CF982F9F7D9554F3
:101BF000933028F40C5F1F4FFFE3F9830DC0833649
:101C000031F0833771F0833509F05BC022C0F801F1
:101C1000808189830E5F1F4F44244394512C5401CB
:101C200015C03801F2E06F0E711CF801A080B18080
:101C300026FF03C0652D70E002C06FEF7FEFC50186
:101C40002C870E94650F2C0183012C852F77222E73
:101C500017C03801F2E06F0E711CF801A080B1804E
:101C600026FF03C0652D70E002C06FEF7FEFC50156
:101C70002C870E945A0F2C012C852068222E83016C
:101C800023FC1BC0832D90E048165906B0F4B70121
:101C900080E290E00E94700F3A94F4CFF50127FCA7
:101CA000859127FE81915F01B70190E00E94700F3E
:101CB00031103A94F1E04F1A51084114510471F770
:101CC000E5C0843611F0893639F5F80127FF07C0E1
:101CD00060817181828193810C5F1F4F08C0608198
:101CE0007181072E000C880B990B0E5F1F4F2F760A
:101CF000722E97FF09C090958095709561957F4FE2
:101D00008F4F9F4F2068722E2AE030E0A4010E947E
:101D1000A80FA82EA81844C0853729F42F7EB22E0C
:101D20002AE030E025C0F22FF97FBF2E8F36C1F0B8
:101D300018F4883579F0B4C0803719F0883721F06D
:101D4000AFC02F2F2061B22EB4FE0DC08B2D84604A
:101D5000B82E09C024FF0AC09F2F9660B92E06C076
:101D600028E030E005C020E130E002C020E132E0B0
:101D7000F801B7FE07C060817181828193810C5F99
:101D80001F4F06C06081718180E090E00E5F1F4FA1
:101D9000A4010E94A80FA82EA818FB2DFF777F2E64
:101DA00076FE0BC0372D3E7FA51450F474FE0AC09A
:101DB00072FC08C0372D3E7E05C0BA2C372D03C0FB
:101DC000BA2C01C0B52C34FF0DC0FE01EA0DF11D87
:101DD0008081803311F4397E09C032FF06C0B3948C
:101DE000B39404C0832F867809F0B39433FD13C0F5
:101DF00030FF06C05A2CB31418F4530C5B18B32CE4
:101E0000B31468F4B70180E290E03C870E94700F41
:101E1000B3943C85F5CFB31410F43B1801C0312CBA
:101E200034FF12C0B70180E390E03C870E94700F3E
:101E30003C8532FF17C031FD03C088E790E002C047
:101E400088E590E0B7010CC0832F867859F031FF08
:101E500002C08BE201C080E237FD8DE2B70190E065
:101E60000E94700FA51438F4B70180E390E00E943F
:101E7000700F5A94F7CFAA94F401EA0DF11D8081F6
:101E8000B70190E00E94700FA110F5CF332009F444
:101E900051CEB70180E290E00E94700F3A94F6CFE5
:101EA000F7018681978102C08FEF9FEF2C96E2E1C8
:101EB0000C942210FC010590615070400110D8F77D
:101EC000809590958E0F9F1F0895FC016150704082
:101ED00001900110D8F7809590958E0F9F1F08955F
:101EE0000F931F93CF93DF93FB01238121FD03C049
:101EF0008FEF9FEF28C022FF16C0468157812481B3
:101F000035814217530744F4A081B1819D012F5FB1
:101F10003F4F318320838C93268137812F5F3F4F42
:101F20003783268310C0EB01092F182F0084F18519
:101F3000E02D0995892BE1F68E819F8101969F8383
:101F40008E83812F902FDF91CF911F910F91089554
:101F5000FA01AA27283051F1203181F1E8946F93DA
:101F60006E7F6E5F7F4F8F4F9F4FAF4FB1E03ED080
:101F7000B4E03CD0670F781F891F9A1FA11D680F1E
:101F8000791F8A1F911DA11D6A0F711D811D911D51
:101F9000A11D20D009F468943F912AE0269F1124C6
:101FA0003019305D3193DEF6CF010895462F47702A
:101FB000405D4193B3E00FD0C9F7F6CF462F4F7085
:101FC000405D4A3318F0495D31FD4052419302D0E3
:101FD000A9F7EACFB4E0A695979587957795679589
:101FE000BA95C9F700976105710508959B01AC0189
:101FF0000A2E06945795479537952795BA95C9F7B0
:10200000620F731F841F951FA01D08952F923F928A
:102010004F925F926F927F928F929F92AF92BF92F8
:10202000CF92DF92EF92FF920F931F93CF93DF93A4
:10203000CDB7DEB7CA1BDB0B0FB6F894DEBF0FBE01
:10204000CDBF09942A88398848885F846E847D844E
:102050008C849B84AA84B984C884DF80EE80FD8050
:102060000C811B81AA81B981CE0FD11D0FB6F894C6
:10207000DEBF0FBECDBFED01089510E0C2E6D0E097
:1020800004C0FE010E942E0D2196C336D107C9F768
:04209000F894FFCFF2
:102094002902290200000000F9001C0891004001F7
:1020A400C200A000B400000000003A0326034C0361
:1020B40018031F031C0319030000000043021C083B
:1020C4004C0342029702AF022A0248656C6C6F000F
:1020D400416464696E67204D657373616765004F81
:1020E4004B0020204D6F64756C6520697320617707
:1020F400616B65004154264B300020204E65747797
:102104006F726B206E6F7420666F756E6400202092
:102114004E6574776F726B20666F756E6400415400
:102124000020204D6F64756C652063616E206E6FB6
:102134007420636F6D6D756E696361746500202032
:102144004D6F64756C652063616E20436F6D6D75B2
:102154006E69636174650020205374617274696EE2
:10216400672065786368616E67652E0041542B5360
:102174004244495800747275650066616C73650069
:102184002B53424449583A20004154204530003DE5
:102194003D526F636B426C6F636B20393630332072
:1021A4005772617070657220537461727420757017
:1021B4003D3D00417474656D7074696E6720746F81
:1021C4002073656E642074657874206D6573736123
:1021D40067652049443A200041542B5342445754E4
:1021E4003D2225643A2564202D20257322002020D9
:1021F4004D6573736167652073656E740041747413
:10220400656D7074696E6720746F2073656E6420E9
:1022140062696E617279206D6573736167652049C7
:10222400443A200041542B53424457423D25640014
:1022340050757474696E67206D6F64756C65207475
:102244006F20736C6565702E005245414459000D32
:022254000A007E
:00000001FF
