:100000000C9469000C94CF050C94A8050C94F6058B
:100010000C94F6050C94F6050C9491000C94910048
:100020000C9491000C9491000C9491000C9491000C
:100030000C9491000C9491000C9491000C949100FC
:100040000C945E050C9491000C947D040C94570460
:100050000C9491000C9491000C9491000C949100DC
:100060000C9470060C9491006364696E6F707375E4
:1000700078585B0000000000240027002A000000E0
:100080000008000201000003040700000000000057
:10009000000000000000250028002B0000000000E8
:1000A00023002600290004040404040404040202BA
:1000B00002020202030303030303010204081020E7
:1000C00040800102040810200102040810202D0BBA
:1000D000230B11241FBECFEFD8E0DEBFCDBF12E04F
:1000E000A0E0B1E0E6EEF4E202C005900D92A63980
:1000F000B107D9F726E0A6E9B2E001C01D92A3330B
:10010000B207E1F710E0C8E6D0E004C02197FE0195
:100110000E94340CC736D107C9F70E947A080C94A4
:1001200066120C940000FC01538D448D252F30E0A5
:10013000842F90E0821B930B541710F0CF960895F4
:1001400001970895FC01918D828D981761F0828D41
:10015000DF01A80FB11D5D968C91928D9F5F9F73FB
:10016000928F90E008958FEF9FEF0895FC01918D9D
:10017000828D981731F0828DE80FF11D858D90E00A
:1001800008958FEF9FEF0895FC01918D228D892FA7
:1001900090E0805C9F4F821B91098F73992708958F
:1001A0008BE695E00E94C40021E0892B09F420E051
:1001B000822F0895FC01848DDF01A80FB11DA35A81
:1001C000BF4F2C91848D90E001968F739927848F77
:1001D000A689B7892C93A089B1898C9180648C936E
:1001E000938D848D981306C00288F389E02D808159
:1001F0008F7D80830895EF92FF920F931F93CF938B
:10020000DF93EC0181E0888F9B8D8C8D981305C066
:10021000E889F989808185FD24C0F62E0B8D10E0D8
:100220000F5F1F4F0F731127E02E8C8DE8120CC04B
:100230000FB607FCFACFE889F989808185FFF5CFF1
:10024000CE010E94DA00F1CF8B8DFE01E80FF11D87
:10025000E35AFF4FF0820B8FEA89FB89808180622D
:1002600007C0EE89FF896083E889F989808180640D
:10027000808381E090E0DF91CF911F910F91FF90FB
:10028000EF900895CF93DF93EC01888D8823C9F018
:10029000EA89FB89808185FD05C0A889B9898C918F
:1002A00086FD0FC00FB607FCF5CF808185FFF2CF2A
:1002B000A889B9898C9185FFEDCFCE010E94DA0023
:1002C000E7CFDF91CF91089580E090E0892B29F06E
:1002D0000E94D00081110C9400000895833081F0B9
:1002E00028F4813099F08230A1F008958730A9F088
:1002F0008830B9F08430D1F4809180008F7D03C0C4
:10030000809180008F7780938000089584B58F77E7
:1003100002C084B58F7D84BD08958091B0008F7731
:1003200003C08091B0008F7D8093B0000895CF937B
:10033000DF93282F30E0F901E258FF4F8491F90153
:10034000E654FF4FD491F901EA55FF4FC491CC23F5
:1003500091F081110E946E01EC2FF0E0EE0FFF1F73
:10036000E456FF4FA591B491EC91ED2381E090E02C
:1003700021F480E002C080E090E0DF91CF91089509
:100380003FB7F89480914E0390914F03A091500392
:10039000B091510326B5A89B05C02F3F19F00196D7
:1003A000A11DB11D3FBFBA2FA92F982F8827820FFB
:1003B000911DA11DB11DBC01CD0142E0660F771F4B
:1003C000881F991F4A95D1F708958F929F92AF92F7
:1003D000BF92CF92DF92EF92FF926B017C010E945D
:1003E000C0014B015C01C114D104E104F104F1F03E
:1003F0000E94C001DC01CB0188199909AA09BB0937
:10040000883E9340A105B10570F321E0C21AD108DE
:10041000E108F10888EE880E83E0981EA11CB11C4B
:10042000C114D104E104F10419F7DDCFFF90EF907E
:10043000DF90CF90BF90AF909F908F9008952FB78F
:10044000F89460914A0370914B0380914C03909112
:100450004D032FBF08950895209154033091550303
:100460002817390771F4909152038091530398171C
:1004700041F0E0915203F0E0E75FFC4F808190E0B3
:1004800008958FEF9FEF089508951F93CF93DF9303
:10049000DC015C962D913C915D972115310539F475
:1004A00081E090E013969C938E9312973DC05196F5
:1004B000ED91FC91529750969C915097892F809581
:1004C0001FB75E964C915E9741FB772770F941FD0F
:1004D0006095F8944081772311F0492B01C048239F
:1004E0004083E9012197F1F748E0508160FF02C0A5
:1004F000592B01C058235083E9012197F1F76695E4
:10050000415099F7772321F090818923808303C09C
:100510008081982B90831FBF5C968D919C915D97F5
:100520000197F1F721E030E0C901DF91CF911F91F0
:10053000089520915403309155032817390771F419
:10054000809153032091520390E0805C9F4F821B67
:10055000910960E470E00E94EA0B089580E090E069
:100560000895209154033091550328173907B9F4A1
:100570009091520380915303981789F0E0915203B0
:10058000F0E0E75FFC4F80812091520330E02F5F65
:100590003F4F2F7333272093520390E008958FEF3E
:1005A0009FEF0895E0915403F0915503E817F90780
:1005B00069F4A389B4899C918589809589238C935A
:1005C000109255031092540381E0089580E008953D
:1005D00085ED8093BC008091BC0084FDFCCF10921F
:1005E000E30208954091BD02262F30E0240F311D13
:1005F00021323105DCF42091E3022430C9F4FC01FE
:1006000080E090E0861758F43091BD022191DC0122
:10061000A556BD4FA30FB11D2C930196F3CF80912A
:10062000BD02680F6093BD0280E0089581E00895E7
:1006300082E0089508958FEF9FEF08958FEF9FEF69
:10064000089580919A0290E091958195910908957D
:10065000CF93DF9300D0CDB7DEB7CB01642F4983B2
:100660005A830E94F2024981842F5A81952F0F905C
:100670000F90DF91CF910895CF93DF931F92CDB765
:10068000DEB7698361E0CE0101960E94F20281E04B
:1006900090E00F90DF91CF910895089580E090E071
:1006A0000895EF92FF920F931F93CF93DF93CDB7EF
:1006B000DEB7C956D1090FB6F894DEBF0FBECDBF65
:1006C00045E050E089E6F82E2AE533E083EC93E03C
:1006D00001E010E060E070E00417150754F5FC013C
:1006E000E756F109A081F901E559FF4FE081AE1706
:1006F000C8F4F901DE011196EF2C01900D92EA94F5
:10070000E1F7FC01D901EF2C01900D92EA94E1F799
:10071000FE013196DC01EF2C01900D92EA94E1F795
:100720006F5F7F4F0F5F1F4F27593F4F87599F4F75
:10073000D3CF672B19F04150510931F6C759DF4F1C
:100740000FB6F894DEBF0FBECDBFDF91CF911F91E2
:100750000F91FF90EF900895CF92DF92EF92FF926A
:10076000C0909602D0909702E0909802F090990283
:1007700088ECC80ED11CE11CF11C0E941F026C15F4
:100780007D058E059F05A0F16BE371E08BE695E09A
:100790000E946608E2ECF3E080E090E02081211105
:1007A00014C029E6289FF001299FF00D1124E65A74
:1007B000FC4F8CE08183128281E08383E859FF4FF4
:1007C00082E080830E94510309C00196E759FF4FE0
:1007D0008530910519F78FEF809300010E941F0269
:1007E0006093960270939702809398029093990277
:1007F000FF90EF90DF90CF9008950E943A0CCF9237
:10080000DF92EF92FF920F931F93CF93DF93CDB7B9
:10081000DEB7C456D1090FB6F894DEBF0FBECDBF08
:10082000BC0188E096E00E94660868E873E180E019
:1008300090E00E94E5018E010F5F1F4F6E0184E67C
:10084000C80ED11CF02EE12E88E096E00E9499029D
:10085000181619065CF40C151D0541F088E096E0A9
:100860000E94B102F80181938F01EECF6AE471E03A
:100870008F2D9E2D0E943F0C892B41F46F2D7E2DD4
:100880008BE695E00E94660880E001C081E0CC59CB
:10089000DF4F0FB6F894DEBF0FBECDBFDF91CF9113
:1008A0001F910F91FF90EF90DF90CF9008951F92CE
:1008B0000F920FB60F9211242F933F934F935F9394
:1008C0006F937F938F939F93AF93BF93EF93FF9318
:1008D0008BE695E00E94DA00FF91EF91BF91AF9116
:1008E0009F918F917F916F915F914F913F912F9148
:1008F0000F900FBE0F901F9018951F920F920FB67A
:100900000F9211242F938F939F93EF93FF93E09176
:100910007B05F0917C058081E0918105F091820555
:1009200082FD12C09081809184058F5F8F7320912A
:100930008505821751F0E0918405F0E0E559FA4F02
:10094000958F8093840501C08081FF91EF919F91E5
:100950008F912F910F900FBE0F901F9018951F939E
:10096000CF93DF93282F30E0F901E258FF4F8491B5
:10097000F901E654FF4FD491F901EA55FF4FC491B4
:10098000CC23C9F0162F81110E946E01EC2FF0E0EC
:10099000EE0FFF1FEE56FF4FA591B4918FB7F8945D
:1009A000111105C09C91ED2FE095E92302C0EC9157
:1009B000ED2BEC938FBFDF91CF911F910895CF93D3
:1009C00085E00E949701892B51F461E085E00E9447
:1009D000AF0460ED77E080E090E00E94E5016DE417
:1009E00071E08BE695E00E94660883E00E94970123
:1009F000019741F06FE571E08BE695E00E94660893
:100A0000C0E01DC063E771E08BE695E00E946608D8
:100A100083E891E00E94FF03C82F81110AC066E8B5
:100A200071E08BE695E00E94660882E08093000109
:100A300006C063EA71E08BE695E00E9466088C2FA1
:100A4000CF910895CF93DF9390E0FC01E654FF4FE0
:100A50002491FC01EA55FF4F8491882361F190E0D5
:100A6000880F991FFC01EC58FF4FC591D491FC01F0
:100A7000EE56FF4FA591B491611109C09FB7F8944C
:100A80008881209582238883EC912E230BC06230CD
:100A900061F49FB7F8943881822F809583238883EF
:100AA000EC912E2B2C939FBF06C08FB7F894E88152
:100AB0002E2B28838FBFDF91CF9108951F920F9225
:100AC0000FB60F9211242F933F938F939F93AF9361
:100AD000BF9380914A0390914B03A0914C03B09136
:100AE0004D033091490323E0230F2D3720F4019665
:100AF000A11DB11D05C026E8230F0296A11DB11D41
:100B00002093490380934A0390934B03A0934C0393
:100B1000B0934D0380914E0390914F03A0915003E9
:100B2000B09151030196A11DB11D80934E03909386
:100B30004F03A0935003B0935103BF91AF919F9186
:100B40008F913F912F910F900FBE0F901F9018958E
:100B50001F920F920FB60F9211242F933F934F9332
:100B60005F936F937F938F939F93AF93BF93EF9315
:100B7000FF93E0910301F09104010995FF91EF913A
:100B8000BF91AF919F918F917F916F915F914F91A5
:100B90003F912F910F900FBE0F901F9018951F92AD
:100BA0000F920FB60F9211242F933F934F935F93A1
:100BB0006F937F938F939F93AF93BF93EF93FF9325
:100BC000E0910101F09102010995FF91EF91BF9130
:100BD000AF919F918F917F916F915F914F913F91D5
:100BE0002F910F900FBE0F901F9018951F920F928C
:100BF0000FB60F9211242F933F934F935F936F93F0
:100C00007F938F939F93AF93BF93EF93FF93E09165
:100C10005403F0915503309709F451C0968DA68581
:100C2000B785858591FF04C09C91892329F447C02D
:100C30009C91892309F043C0A389B4899C9185893B
:100C4000809589238C93868997890197F1F7608D28
:100C5000718DA685B785558538E020E0CB010197D9
:100C6000F1F7822F90E095958795282F4C91452399
:100C700009F02068315091F7868D81FD2095809193
:100C8000530390E001968F739927309152033817E0
:100C900049F0A0915303B0E0A75FBC4F2C93809321
:100CA000530303C0868D8160868F828D938D01975B
:100CB000F1F7A389B4899C918589892B8C93FF9145
:100CC000EF91BF91AF919F918F917F916F915F91C4
:100CD0004F913F912F910F900FBE0F901F9018953D
:100CE0001F920F920FB60F9211242F933F934F93A1
:100CF0005F936F937F938F939F93AF93BF93EF9384
:100D0000FF938091B900887F803609F49CC068F514
:100D1000883209F45BC090F4803109F454C038F48F
:100D2000882309F4F6C0883009F44DC0F6C0883134
:100D300009F44CC0803209F45DC0EFC0803409F47E
:100D400068C048F4803309F455C0883309F0E5C021
:100D50008093E202D8C0803509F44FC0883509F489
:100D60005DC0883409F0D9C0D6C0883909F4C7C03D
:100D7000A8F4883709F467C038F4883609F463C0EA
:100D8000803709F460C0C9C0883809F4B8C0803918
:100D900009F45FC0803809F0C0C05BC0803B09F433
:100DA00086C038F4803A09F466C0883A09F47FC0F6
:100DB000B4C0803C09F4A7C0883C09F4A4C0883BB7
:100DC00009F48AC0AAC08091080310C0909107035B
:100DD00080910603981770F5E091070381E08E0F6C
:100DE00080930703F0E0EA51FD4F80818093BB00C0
:100DF00085EC86C08093E2028EC0E091070381E01B
:100E00008E0F809307038091BB00F0E0EA51FD4F05
:100E1000808390910703809106036EC0E0910703E1
:100E200081E08E0F809307038091BB00F0E0EA51D0
:100E3000FD4F80838091E50281116DC081E0809338
:100E4000E40284EA61C083E08093E3021092E1024D
:100E5000CFCF8091E102803208F051C0E091E102F1
:100E600081E08E0F8093E1028091BB00F0E0EF53B0
:100E7000FD4F8083BDCF85EC8093BC001092E302D0
:100E80008091E102803230F4E091E102F0E0EF5332
:100E9000FD4F10826091E10270E0E091BF02F0919D
:100EA000C00281EC92E009951092E10236C084E024
:100EB0008093E3021092BE021092BD02E091BB0249
:100EC000F091BC0209958091BD02811105C081E0BD
:100ED0008093BD0210929B02E091BE0281E08E0FD2
:100EE0008093BE02F0E0E556FD4F80818093BB0009
:100EF0009091BE028091BD02981708F479CF85E8E1
:100F00008093BC000AC085EC8093BC001092E30281
:100F100004C01092E2020E94E802FF91EF91BF919B
:100F2000AF919F918F917F916F915F914F913F9181
:100F30002F910F900FBE0F901F901895CF92DF92B8
:100F4000EF92FF920F931F93CF93DF936C017A017F
:100F50008B01C0E0D0E0CE15DF0589F0D8016D919E
:100F60008D01D601ED91FC910190F081E02DC6013B
:100F70000995892B11F47E0102C02196ECCFC7019F
:100F8000DF91CF911F910F91FF90EF90DF90CF9065
:100F900008956115710579F0FB0101900020E9F7D2
:100FA0003197AF01461B570BDC01ED91FC9102809C
:100FB000F381E02D099480E090E008958F929F9254
:100FC000AF92BF92CF92DF92EF92FF920F931F9357
:100FD000CF93DF93CDB7DEB7A1970FB6F894DEBFFE
:100FE0000FBECDBF6C01990FEE08FF08F7FE33C0AE
:100FF000E0916B05F0916C050190F081E02D6DE2C0
:101000008BE695E009958C0122273327A9012C193D
:101010003D094E095F0919A2CE0181967C019AE033
:10102000892E912CA12CB12CCA01B901A5019401E2
:101030000E94FE0B605DF70162937F01211531056F
:101040004105510589F7BF018BE695E00E94C9076C
:10105000080F191F20C0A701960119A28E010F5D6C
:101060001F4F8AE0C82ED12CE12CF12CCA01B90106
:10107000A70196010E94FE0B605DF80162938F014B
:10108000211531054105510589F7BF018BE695E032
:101090000E94C9078C0162E972E08BE695E00E942C
:1010A000C907800F911FA1960FB6F894DEBF0FBE3F
:1010B000CDBFDF91CF911F910F91FF90EF90DF9007
:1010C000CF90BF90AF909F908F9008950F931F93F4
:1010D000CF93DF93EC010E94C9078C0162E972E0B3
:1010E000CE010E94C907800F911FDF91CF911F9100
:1010F0000F910895CF93DF93CDB7DEB7CC5DD109C3
:101100000FB6F894DEBF0FBECDBF789484B5826071
:1011100084BD84B5816084BD85B5826085BD85B59B
:10112000816085BD80916E00816080936E00109219
:101130008100809181008260809381008091810094
:101140008160809381008091800081608093800025
:101150008091B10084608093B1008091B000816083
:101160008093B00080917A00846080937A008091AF
:101170007A00826080937A0080917A008160809307
:101180007A0080917A00806880937A001092C10082
:10119000E0917B05F0917C0582E08083E0917B0506
:1011A000F0917C051082E0917705F091780510822E
:1011B000E0917905F0917A0580E1808310928305B2
:1011C000E0917F05F091800586E08083E0917D05C8
:1011D000F0917E05808180618083E0917D05F091B2
:1011E0007E05808188608083E0917D05F0917E0599
:1011F000808180688083E0917D05F0917E0580810B
:101200008F7D808310922306109222061092210671
:101210001092200610921F0610921E068DEC90E090
:10122000909325068093240690911406963108F039
:1012300057C025E530E030931F0620931E062BECA7
:1012400030E0309321062093200620E930E03093EF
:1012500023062093220620916800983050F031E058
:101260009E3008F430E081E001C0880F3A95EAF73B
:1012700001C084E0822B80936800983038F09E3063
:1012800040F0963148F020E030E008C02DE630E034
:1012900005C02BE630E002C02CE630E030931C069F
:1012A00020931B06983030F481E001C0880F9A9596
:1012B000EAF70EC0292F30E09E3018F4285031098B
:1012C00002C02E50310981E001C0880F2A95EAF74B
:1012D00080931D0680912406909125060197F1F7D1
:1012E0008091220690912306892B21F1809154034D
:1012F0009091550326E088309207E1F0009711F0B5
:101300000E94D202809126068E7F8093260610923C
:1013100053031092520388E096E090935503809314
:101320005403E0911B06F0911C06908180911D06EC
:10133000892B808361E085E00E94220560E083E0E4
:101340000E94220560E082E00E9422058CEB91E081
:101350000E94FF038CEA93E09093020180930101C5
:10136000809169008C7F816080936900E89A62ECCB
:1013700071E08BE695E00E9466089BE0292E92E0E2
:10138000392EAE014F5F5F4F2A015E0150E7A50E77
:10139000B11C95012C5F3F4FC552DF4F3983288325
:1013A000CB5DD0403E0134ED630E711CC0906705EB
:1013B000D0906805E0906905F0906A0540E4C40E9D
:1013C0004CE9D41EE11CF11C0E941F02C616D70670
:1013D000E806F90608F0E7C002EC13E08DE5C82E38
:1013E00083E0D82EE12CF12CD8018C91813079F456
:1013F0001C92F801E856F109108232961082F6012B
:101400001082F801E456F10910820E945103D801BC
:101410008C91823009F0B0C0F6018081813009F0F2
:101420008FC066EE71E08BE695E00E94C907C701A8
:101430000E94DE070E94DF04882309F474C0C801FB
:10144000845691099F938F933F922F925F924F9270
:101450000E94590CC2010E94FF030F900F900F9041
:101460000F900F900F90882309F463C069E172E038
:101470008BE695E00E946608D5011D921D921D9293
:101480001C921397C552DF4FE881F981CB5DD040A4
:1014900020E611922A95E9F76EE272E088E096E084
:1014A0000E9466080E941F029B01AC012853304530
:1014B0004F4F5F4FC952DF4F288339834A835B8385
:1014C000C75DD0400E941F02C952DF4F2881398179
:1014D0004A815B81C75DD040621773078407950717
:1014E00068F46CE272E08BE695E00E94C90768EE52
:1014F00073E080E090E00E94E501E4CF450188E0E0
:1015000096E00E949902181619060CF074C0861411
:10151000970409F470C088E096E00E94B102D401FB
:101520008D934D01ECCF32E0CA52DF4F3883C65D58
:10153000D040CA52DF4F2881C65DD040D8012C93DD
:10154000D6019C90B2E09B120DC066E472E08BE67F
:1015500095E00E94C907C7010E94DE070E94DF04D0
:10156000F80190820E941F02609356037093570304
:101570008093580390935903FFEFEF1AFF0A07591E
:101580001F4F29E6C20ED11C35E0E316F10409F025
:101590002BCF0E941F0260936705709368058093AC
:1015A000690590936A05C0905603D0905703E09068
:1015B0005803F090590340EEC40E43E9D41E44E0B2
:1015C000E41EF11C0E941F02C616D706E806F906A3
:1015D00078F485E00E949701892B51F06DE672E066
:1015E0008BE695E00E94660860E085E00E94AF040B
:1015F0000E946401DBCE7F926F92A6E8B2E0BF93B7
:10160000AF93BF92AF920E947C0C0F900F900F90FF
:101610000F900F900F90892B99F0F30180819181A9
:10162000069708F086CF67E372E08BE695E00E94AC
:10163000660821E0CA52DF4F2883C65DD04079CFCB
:101640008FEF9FEFEDCF8DE291E0909309068093AD
:10165000080688E096E00C94D20210926E05109273
:101660006D0588EE93E0A0E0B0E080936F05909365
:101670007005A0937105B093720529E031E03093B5
:101680006C0520936B0525EC30E0309378052093B2
:10169000770524EC30E030937A052093790520EC2F
:1016A00030E030937C0520937B0521EC30E03093D3
:1016B0007E0520937D0522EC30E030938005209359
:1016C0007F0526EC30E0309382052093810510924F
:1016D0008405109285051092860510928705109258
:1016E0002A061092290680932B0690932C06A0932D
:1016F0002D06B0932E062BE131E03093280620937F
:10170000270610920B0610920A0680930C069093FF
:101710000D06A0930E06B0930F068DE291E0909314
:1017200009068093080610921F0610921E0610925A
:101730002106109220061092230610922206109283
:10174000250610922406609126066E7F6D7F6093B9
:1017500026066695617081E068278BE00E94AF04E1
:1017600061E08BE00E942205E5ECF0E0E491E0937B
:101770001806E1EBF0E0E491F0E0EE0FFF1FEE560B
:10178000FF4F8591949190931A068093190660E01B
:101790008AE00E9422058091260681FD04C061E056
:1017A0008AE00E94AF048AE080931406E4ECF0E043
:1017B000E491E0931506E0EBF0E0E491F0E0EE0F49
:1017C000FF1FE456FF4F85919491909317068093E5
:1017D0001606089597FB072E16F4009407D077FDA0
:1017E00009D00E94200C07FC05D03EF4909581950D
:1017F0009F4F0895709561957F4F0895A1E21A2E2D
:10180000AA1BBB1BFD010DC0AA1FBB1FEE1FFF1FA4
:10181000A217B307E407F50720F0A21BB30BE40BF4
:10182000F50B661F771F881F991F1A9469F760953B
:101830007095809590959B01AC01BD01CF010895F5
:10184000AA1BBB1B51E107C0AA1FBB1FA617B707E6
:1018500010F0A61BB70B881F991F5A95A9F7809502
:101860009095BC01CD010895EE0FFF1F0590F491F6
:10187000E02D099481E090E0F8940C946612FB014D
:1018800051915523A9F0BF01DC014D91451741113C
:10189000E1F759F4CD010190002049F04D91401538
:1018A0004111C9F3FB014111EFCF81E090E00197B5
:1018B0000895AEE0B0E0EFE5FCE00C943D120D8938
:1018C0001E8986E08C831A8309838FEF9FE79E83AE
:1018D0008D83AE01475E5F4F6F89788DCE01019693
:1018E0000E94950C2F813885F801E20FF31F1082BA
:1018F0002E96E4E00C945912AEE0B0E0E2E8FCE091
:101900000C943F1285E08C838B899C899A83898310
:10191000AE01495E5F4F6D897E89CE0101960E94BE
:10192000E70F2E96E2E00C945B12ACE0B0E0EBE93E
:10193000FCE00C942F127C016B018A01FC011782E0
:101940001682838181FFBDC1CE0101964C01F70152
:101950009381F60193FD859193FF81916F01882317
:1019600009F4ABC1853239F493FD859193FF8191E0
:101970006F01853229F4B70190E00E947D11E7CF15
:10198000512C312C20E02032A0F48B3269F030F45D
:10199000803259F0833269F420612CC08D3239F0E5
:1019A000803339F4216026C02260246023C028607F
:1019B00021C027FD27C030ED380F3A3078F426FFDC
:1019C00006C0FAE05F9E300D1124532E13C08AE04A
:1019D000389E300D1124332E20620CC08E3221F43B
:1019E00026FD6BC1206406C08C3611F4206802C04D
:1019F000883641F4F60193FD859193FF81916F0143
:101A00008111C1CF982F9F7D9554933028F40C5F9E
:101A10001F4FFFE3F9830DC0833631F0833771F038
:101A2000833509F05BC022C0F801808189830E5F95
:101A30001F4F44244394512C540115C03801F2E047
:101A40006F0E711CF801A080B18026FF03C0652DC8
:101A500070E002C06FEF7FEFC5012C870E94341148
:101A60002C0183012C852F77222E17C03801F2E03C
:101A70006F0E711CF801A080B18026FF03C0652D98
:101A800070E002C06FEF7FEFC5012C870E94291123
:101A90002C012C852068222E830123FC1BC0832D62
:101AA00090E048165906B0F4B70180E290E00E9439
:101AB0007D113A94F4CFF50127FC859127FE8191A1
:101AC0005F01B70190E00E947D1131103A94F1E07E
:101AD0004F1A51084114510471F7E5C0843611F0D2
:101AE000893639F5F80127FF07C06081718182814D
:101AF00093810C5F1F4F08C060817181072E000C1D
:101B0000880B990B0E5F1F4F2F76722E97FF09C01F
:101B100090958095709561957F4F8F4F9F4F20686E
:101B2000722E2AE030E0A4010E94CE11A82EA8183F
:101B300044C0853729F42F7EB22E2AE030E025C03C
:101B4000F22FF97FBF2E8F36C1F018F4883579F067
:101B5000B4C0803719F0883721F0AFC02F2F206133
:101B6000B22EB4FE0DC08B2D8460B82E09C024FFA8
:101B70000AC09F2F9660B92E06C028E030E005C04D
:101B800020E130E002C020E132E0F801B7FE07C0FA
:101B900060817181828193810C5F1F4F06C06081DB
:101BA000718180E090E00E5F1F4FA4010E94CE1172
:101BB000A82EA818FB2DFF777F2E76FE0BC0372DA1
:101BC0003E7FA51450F474FE0AC072FC08C0372D85
:101BD0003E7E05C0BA2C372D03C0BA2C01C0B52CEF
:101BE00034FF0DC0FE01EA0DF11D8081803311F438
:101BF000397E09C032FF06C0B394B39404C0832F6A
:101C0000867809F0B39433FD13C030FF06C05A2C18
:101C1000B31418F4530C5B18B32CB31468F4B70165
:101C200080E290E03C870E947D11B3943C85F5CF23
:101C3000B31410F43B1801C0312C34FF12C0B701AB
:101C400080E390E03C870E947D113C8532FF17C005
:101C500031FD03C088E790E002C088E590E0B7015D
:101C60000CC0832F867859F031FF02C08BE201C08F
:101C700080E237FD8DE2B70190E00E947D11A5144E
:101C800038F4B70180E390E00E947D115A94F7CFB9
:101C9000AA94F401EA0DF11D8081B70190E00E9441
:101CA0007D11A110F5CF332009F451CEB70180E2A8
:101CB00090E00E947D113A94F6CFF70186819781DA
:101CC00002C08FEF9FEF2C96E2E10C944B1220FDA7
:101CD00009C0FC0123FD05C022FF02C0738362839B
:101CE00051834083089544FD10C046FD10C0DB01C0
:101CF000FC01AA0FBB1FEE1FFF1F1094D1F76A0F44
:101D00007B1F8E1F9F1F31E003C033E001C034E012
:101D1000660F771F881F991F3150D1F7620F711D11
:101D2000811D911D08950F931F93CF93DF938C0115
:101D3000C8010E943F11EC0197FD08C00E941511D7
:101D4000892BB1F7B801CE010E94B511CE01DF9108
:101D5000CF911F910F910895A1E0B0E0E2EBFEE07A
:101D60000C9435128C01C62E7A0129830E943F11F2
:101D7000AC01552729814B32510521F04D325105D7
:101D800069F42068CA94C11002C080E076C0C8011E
:101D900029830E943F11298197FDF7CF322F3D7F84
:101DA000D32E322F307349F5803339F5BB24BA94E2
:101DB000BC0C09F44EC0C80129830E943F1129813F
:101DC00097FD47C0382F3F7D383569F48D2D8264EB
:101DD000D82ECA94CA94CC20E1F1C8010E943F11C8
:101DE00097FF0BC036C026FF04C02D2D2260D22ED7
:101DF00003C03D2D3261D32ECB2C812C912C54016C
:101E000020ED280F283080F0D4FE04C0B8010E94D5
:101E1000B5111CC02A3040F0D6FEF8CF2F7D3FEE22
:101E2000320F363098F727504D2DC501B4010E946E
:101E3000730E4B015C018D2D8260D82ECA94CC208C
:101E400059F0C8010E943F1197FFDACFD1FC04C0BE
:101E50009CCF812C912C5401D7FE08C0B094A09443
:101E600090948094811C911CA11CB11C2D2DB50156
:101E7000A401C7010E94670E81E02196ECE00C945A
:101E80005112A1E2B0E0E7E4FFE00C9433125C01F0
:101E90007A01CE0101966C0180E2F60111928A95D9
:101EA000E9F7F501838040E050E0912C712C70E05F
:101EB000A1E0B0E0F90183FC859183FE81918F015F
:101EC000982F9F01811103C080E090E07CC08E3587
:101ED00019F44115510549F1E72FF0E0E417F50732
:101EE0003CF48D3559F18D3219F4772001F103C09E
:101EF000711001C0982E892F86958695869586014A
:101F0000080F111D892F87703D0101C0660C8A954D
:101F1000EAF7F801808186298083991559F099158F
:101F200010F49F5FE8CF9150E6CF71E004C07724B2
:101F3000739401C0712C4F5F5F4FBCCF772019F0B5
:101F40008E8180628E83711103C09924939416C090
:101F5000F6019E012F5D3F4F808180958193E217AE
:101F6000F307D1F7F2CFE114F10429F0F7018083F0
:101F7000C70101967C016150912CF9F0C50169A35C
:101F80000E943F1169A197FD16C0282F269526951E
:101F90002695F601E20FF11D208130E0AC0147707B
:101FA000552702C0359527954A95E2F720FDDBCFEE
:101FB000B5010E94B511911087CFE114F10411F021
:101FC000F7011082C801A196EEE00C944F124F92D7
:101FD0005F927F928F929F92AF92BF92CF92DF9249
:101FE000EF92FF920F931F93CF93DF931F92CDB782
:101FF000DEB76C012B015A01FC0117821682712C8D
:10200000F601F380F201F3FC8591F3FE8191382F04
:102010002F01882309F4F3C090E039830E94151141
:102020003981892B21F0C6010E94930EE9CF353208
:1020300041F4F201F3FC3591F3FE31912F01353279
:1020400069F4C60139830E943F11398197FDD5C0DB
:102050003817B1F2B6010E94B511D1C03A3239F445
:10206000F3FC3591F3FE31912F0151E001C050E0B6
:10207000420110E020ED230F2A3090F45260612FCE
:1020800070E080E090E040E259830E94730E162FCA
:10209000F401F3FC3591F3FE31914F015981EACF00
:1020A000052F232F240151FF03C0111102C0A7C027
:1020B0001FEF383619F03C3659F011C0F401F3FC2B
:1020C0002591F3FE21912F01283649F4052F086050
:1020D0000460F201F3FC2591F3FE21912F012223EC
:1020E00009F48DC0622F70E088E690E029830E9499
:1020F0001E112981892B09F482C000FD07C0F5015A
:10210000E080F180C50102965C0102C0E12CF12C57
:102110002E3651F4F6014681578160E070E0202FA1
:10212000C7010E94670E6CCF233691F401FF11E0C6
:10213000C6010E943F1197FD60C0E114F10429F02F
:10214000F7018083C70101967C01115089F751C0C6
:102150002B3559F49201A701612FC6010E94410F4E
:102160002C01892B09F045C03FC0C60129830E947C
:10217000930E298197FD41C02F3659F128F424365A
:1021800031F1293649F127C0233769F02537F9F0B5
:1021900022C0E114F10429F0F7018082C701019601
:1021A0007C01115071F0C6010E943F114C0197FD56
:1021B00008C00E941511892B61F3B601C4010E9469
:1021C000B511E114F104A9F0F701108212C0006208
:1021D00003C0006101C00064202FA701612FC60168
:1021E0000E94AC0E811105C0F6018381807329F431
:1021F00006C000FD05CF739403CF772019F0872D1B
:1022000090E002C08FEF9FEF0F90DF91CF911F9171
:102210000F91FF90EF90DF90CF90BF90AF909F9085
:102220008F907F905F904F90089591110C942C1295
:10223000803219F089508550C8F70895FC01059047
:10224000061621F00020D9F7C00108953197CF017B
:102250000895FC010590615070400110D8F78095F9
:1022600090958E0F9F1F0895FC0161507040019062
:102270000110D8F7809590958E0F9F1F0895CF93EA
:10228000DF93EC012B8120FF33C026FF0AC02F7B98
:102290002B838E819F8101969F838E838A8190E01C
:1022A00029C022FF0FC0E881F9818081082E000C2F
:1022B000990B009719F420622B831AC03196F98389
:1022C000E8830EC0EA85FB85099597FF09C02B813D
:1022D000019611F080E201C080E1822B8B8308C05F
:1022E0002E813F812F5F3F4F3F832E83992702C06E
:1022F0008FEF9FEFDF91CF9108950F931F93CF93AF
:10230000DF93FB01238121FD03C08FEF9FEF28C0E6
:1023100022FF16C046815781248135814217530719
:1023200044F4A081B1819D012F5F3F4F3183208311
:102330008C93268137812F5F3F4F3783268310C0D0
:10234000EB01092F182F0084F185E02D0995892BC9
:10235000E1F68E819F8101969F838E83812F902F3E
:10236000DF91CF911F910F910895FB01238120FFF1
:1023700012C026FD10C08F3F3FEF930761F08283AC
:102380002F7D2064238326813781215031093783B3
:102390002683992708958FEF9FEF0895FA01AA27C2
:1023A000283051F1203181F1E8946F936E7F6E5F98
:1023B0007F4F8F4F9F4FAF4FB1E03ED0B4E03CD046
:1023C000670F781F891F9A1FA11D680F791F8A1F29
:1023D000911DA11D6A0F711D811D911DA11D20D090
:1023E00009F468943F912AE0269F11243019305D4A
:1023F0003193DEF6CF010895462F4770405D41933B
:10240000B3E00FD0C9F7F6CF462F4F70405D4A3387
:1024100018F0495D31FD4052419302D0A9F7EACF4F
:10242000B4E0A6959795879577956795BA95C9F77E
:1024300000976105710508959B01AC010A2E069471
:102440005795479537952795BA95C9F7620F731F2A
:10245000841F951FA01D08959927882708952F92FE
:102460003F924F925F926F927F928F929F92AF9224
:10247000BF92CF92DF92EF92FF920F931F93CF9371
:10248000DF93CDB7DEB7CA1BDB0B0FB6F894DEBF08
:102490000FBECDBF09942A88398848885F846E842E
:1024A0007D848C849B84AA84B984C884DF80EE8078
:1024B000FD800C811B81AA81B981CE0FD11D0FB681
:1024C000F894DEBF0FBECDBFED01089510E0C8E661
:1024D000D0E004C0FE010E94340C2196C936D10719
:0624E000C9F7F894FFCFDC
:1024E600FE2B022B0200000000FB009E0793004219
:1024F60001C400A200B600000000003C0328034E01
:10250600031A0321031E031B030000000045029E5D
:10251600074E0344029902B1022C02416464696EBB
:1025260067204D657373616765004F4B0020204D32
:102536006F64756C65206973206177616B65002037
:10254600204E6574776F726B206E6F7420666F75A0
:102556006E640020204E6574776F726B20666F750F
:102566006E640041540020204D6F64756C652063D5
:10257600616E206E6F7420636F6D6D756E69636139
:1025860074650020204D6F64756C652063616E2054
:10259600436F6D6D756E69636174650041542045C6
:1025A60030003D3D526F636B426C6F636B20393672
:1025B6003033205772617070657220537461727483
:1025C6002075703D3D00417474656D7074696E6769
:1025D60020746F2073656E642074657874206D6551
:1025E60073736167652049443A200041542B534276
:1025F6004457543D2225732200202053746172747F
:10260600696E672065786368616E67652E00415460
:102616002B53424449580020204D6573736167650A
:102626002073656E7400417474656D7074696E67AD
:1026360020746F2073656E642062696E6172792002
:102646006D6573736167652049443A20005075745F
:1026560074696E67206D6F64756C6520746F207386
:102666006C6565702E002B53424449583A20256408
:062676002C000D0A00001B
:107800000C94343C0C94513C0C94513C0C94513CE1
:107810000C94513C0C94513C0C94513C0C94513CB4
:107820000C94513C0C94513C0C94513C0C94513CA4
:107830000C94513C0C94513C0C94513C0C94513C94
:107840000C94513C0C94513C0C94513C0C94513C84
:107850000C94513C0C94513C0C94513C0C94513C74
:107860000C94513C0C94513C11241FBECFEFD8E036
:10787000DEBFCDBF11E0A0E0B1E0ECE9FFE702C060
:1078800005900D92A230B107D9F712E0A2E0B1E065
:1078900001C01D92AD30B107E1F70E942D3D0C945F
:1078A000CC3F0C94003C982F959595959595959582
:1078B000905D8F708A307CF0282F295A8091C0000B
:1078C00085FFFCCF9093C6008091C00085FFFCCF60
:1078D0002093C6000895282F205DF0CF982F809127
:1078E000C00085FFFCCF9093C6000895EF92FF92F1
:1078F0000F931F93EE24FF2487018091C00087FD22
:1079000017C00894E11CF11C011D111D81E4E8164B
:1079100082E4F8068FE0080780E0180770F3E09132
:107920000401F091050109958091C00087FFE9CF1E
:107930008091C6001F910F91FF90EF9008950E94D3
:10794000763C982F8091C00085FFFCCF9093C600B5
:1079500091362CF490330CF09053892F089597555D
:10796000892F08951F930E949F3C182F0E949F3CCF
:107970001295107F810F1F9108951F93182F882350
:1079800021F00E94763C1150E1F71F9108951F935A
:10799000182F0E94763C803249F0809103018F5F5E
:1079A000809303018530C1F01F9108958091C0003C
:1079B00085FFFCCF84E18093C6008091C00085FFE5
:1079C000FCCF1093C6008091C00085FFFCCF80E102
:1079D0008093C6001F910895E0910401F091050184
:1079E00009951F9108950E94763C803241F0809164
:1079F00003018F5F80930301853081F008958091AA
:107A0000C00085FFFCCF84E18093C6008091C00058
:107A100085FFFCCF80E18093C6000895E0910401CA
:107A2000F09105010995089540E951E08823A1F0FE
:107A30002D9A28EE33E0FA013197F1F721503040CA
:107A4000D1F72D9828EE33E0FA013197F1F7215064
:107A50003040D1F7815061F708953F924F925F9285
:107A60006F927F928F929F92AF92BF92CF92DF924E
:107A7000EF92FF920F931F93CF93DF93000080E16B
:107A80008093C4001092C50088E18093C10086E015
:107A90008093C2005098589A259A81E00E94143D24
:107AA00024E1F22E9EE1E92E85E9D82E0FE0C02ECA
:107AB00010E1B12EAA24A394B1E49B2EA6E58A2E50
:107AC000F2E57F2EE0E26E2E79E4572E63E5462E36
:107AD00050E5352E0E94763C8033B1F18133B9F107
:107AE000803409F46FC0813409F476C0823409F41B
:107AF00085C0853409F488C0803531F1823521F1A3
:107B0000813511F1853509F485C0863509F48DC0BC
:107B1000843609F496C0843709F403C1853709F423
:107B200072C1863709F466C0809103018F5F80932C
:107B30000301853079F6E0910401F0910501099582
:107B40000E94763C803351F60E94F33CC3CF0E94E2
:107B5000763C803249F78091C00085FFFCCFF092DF
:107B6000C6008091C00085FFFCCF9092C600809136
:107B7000C00085FFFCCF8092C6008091C00085FFC9
:107B8000FCCF7092C6008091C00085FFFCCF609250
:107B9000C6008091C00085FFFCCF5092C600809146
:107BA000C00085FFFCCF4092C6008091C00085FFD9
:107BB000FCCF3092C6008091C00085FFFCCFB09210
:107BC000C60088CF0E94763C863808F4BDCF0E945C
:107BD000763C0E94F33C7ECF0E94763C803809F4CC
:107BE0009CC0813809F40BC1823809F43CC1883942
:107BF00009F48FC080E00E94C73C6CCF84E10E94F2
:107C0000BD3C0E94F33C66CF85E00E94BD3C0E94D3
:107C1000F33C60CF0E94763C809306010E94763C44
:107C2000809307010E94F33C55CF0E94763C80333D
:107C300009F41DC183E00E94BD3C80E00E94C73C66
:107C400049CF0E94763C809309020E94763C809343
:107C5000080280910C028E7F80930C020E94763C79
:107C6000853409F415C18091080290910902892B8D
:107C700089F000E010E00E94763CF801E85FFE4FDA
:107C800080830F5F1F4F80910802909109020817AF
:107C9000190788F30E94763C803209F045CF809125
:107CA0000C0280FF01C16091060170910701660F0F
:107CB000771F7093070160930601A0910802B091AD
:107CC00009021097C9F0E8E0F1E09B01AD014E0F09
:107CD0005F1FF999FECF32BD21BD819180BDFA9A17
:107CE000F99A2F5F3F4FE417F50799F76A0F7B1F4B
:107CF00070930701609306018091C00085FFFCCF5F
:107D0000F092C6008091C00085FFFCCFB092C60003
:107D1000E1CE83E00E94C73CDDCE82E00E94C73CFA
:107D2000D9CE0E94763C809309020E94763C8093D3
:107D300008028091060190910701880F991F909386
:107D40000701809306010E94763C853409F4A6C0A1
:107D500080910C028E7F80930C020E94763C8032D0
:107D600009F0B8CE8091C00085FFFCCFF092C6002C
:107D7000609108027091090261157105B9F140E046
:107D800050E080910C02A82FA170B82FB27011C0E2
:107D9000BB2309F45CC0E0910601F0910701319624
:107DA000F0930701E09306014F5F5F4F46175707B7
:107DB000E8F4AA2369F3F999FECF209106013091E6
:107DC000070132BD21BDF89A90B58091C00085FFB2
:107DD000FCCF9093C6002F5F3F4F30930701209355
:107DE00006014F5F5F4F4617570718F38091C00099
:107DF00085FDE5CE8091C00085FFF8CFE0CE81E023
:107E00000E94C73C67CE0E94763C803209F08CCE3F
:107E10008091C00085FFFCCFF092C6008091C00029
:107E200085FFFCCFE092C6008091C00085FFFCCFAB
:107E3000D092C6008091C00085FFFCCFC092C600E2
:107E40008091C00085FFFCCFB092C60043CEE09188
:107E50000601F091070194918091C00085FFFCCF4D
:107E60009093C6009CCF80E10E94C73C33CE0E9415
:107E7000763C0E94763C182F0E94763C112309F430
:107E800083C0113009F484C08FE00E94C73C22CE29
:107E900080910C02816080930C02E5CE80910C02EF
:107EA000816080930C0259CF809107018823880F4D
:107EB000880B8A2180930B02809106019091070123
:107EC000880F991F90930701809306018091080203
:107ED00080FF09C080910802909109020196909359
:107EE000090280930802F894F999FECF1127E091D6
:107EF0000601F0910701C8E0D1E08091080290915D
:107F00000902103091F40091570001700130D9F34B
:107F100003E000935700E89500915700017001308D
:107F2000D9F301E100935700E89509901990009169
:107F3000570001700130D9F301E000935700E89534
:107F40001395103498F011270091570001700130FB
:107F5000D9F305E000935700E895009157000170B0
:107F60000130D9F301E100935700E895329602976A
:107F700009F0C7CF103011F00296E5CF112480919F
:107F8000C00085FFB9CEBCCE8EE10E94C73CA2CD19
:0C7F900085E90E94C73C9ECDF894FFCF0D
:027F9C00800063
:040000030000780081
:00000001FF